:02000004A41046
:04040C0000000000EC
:02000004E020FA
:1008000000002034850F1070590F10705B0F1070AE
:100810005D0F10705F0F1070610F1070630F10701C
:10082000000000000000000000000000650F1070D4
:10083000670F107000000000690F10706B0F1070D0
:10084000E10F107000000000E10F1070E10F107058
:10085000E10F1070E10F1070E10F1070E10F1070D8
:10086000E10F107000000000E10F1070E10F107038
:10087000E10F1070E10F1070E10F10700000000028
:10088000E10F107000000000E10F1070E10F107018
:10089000E10F1070E10F1070E10F1070E10F107098
:1008A000E10F1070E10F1070E10F1070E10F107088
:1008B000E10F1070E10F1070E10F1070E10F107078
:1008C000E10F1070E10F1070E10F1070E10F107068
:1008D0000000000000000000E10F1070E10F107038
:1008E000E10F107000000000000000000000000098
:1008F0000000000000000000E10F1070E10F107018
:10090000E10F107000000000000000000000000077
:10091000E10F1070E10F1070E10F1070E10F107017
:10092000E10F1070E10F1070E10F1070E10F107007
:10093000E10F1070E10F1070E10F1070E10F1070F7
:10094000E10F1070E10F1070E10F1070E10F1070E7
:0C0B400000000000E10F1070E10F1070C9
:100B5000174804221A4BD0F8841041F44061C0F8C1
:100B60008410D0F82C1262F39C610022C0F82C1281
:100B700010490A604A608A60CA600A614A618A61F3
:100B80000D49012201600D49C1F80028096801687A
:100B9000196019680B490A60D0F8801041F470019F
:100BA000C0F880100848016841F470010160704786
:100BB00008ED00E080E300E0000410707882025647
:100BC000108000567892025688ED02E05448016881
:100BD000C1F301525349F0B503AF4DF804BDDFE84E
:100BE00002F002089A11806A5349C0F3C110C14053
:100BF00091E0406A4F4980055CBF40F60011C0F2A9
:100C00003D0188E0D0F8A420C2F30172DFE802F0D1
:100C1000021C0A13026E13013BD400F1680300F1B9
:100C2000640418E0D0F88020130132D400F1880366
:100C300000F184040FE0D0F89020130129D400F1D2
:100C4000980300F1940406E0026F130121D400F12F
:100C5000780300F1740424689FED341A1B680125A1
:100C600024F07F4400EE104AC2F30554B8EE400A67
:100C700020EE011A00EE104AC2F30B24B8EE402A0F
:100C800000EE104AC3F30264C3F3C263B8EE400A35
:100C900008E09FED250A002300240025B0EE401A4D
:100CA000B0EE402AC2F30272032A15D8DFE802F040
:100CB00002091512816A204AC1F3C11122FA01F119
:100CC0000BE0416A89051B495CBF40F60011C0F288
:100CD0003D0102E0164900E00021ADB131EE000A0D
:100CE00001EE101A04FB03F1B8EE411A20EE010ADE
:100CF00001EE101A80EE020AB8EE411A80EE010AE7
:100D0000BCEEC00A10EE101AD0F8A400012252FA6C
:100D1000A0F0B1FBF0F1094801605DF804BBF0BD43
:100D200020800256006CDC020000000000008033CE
:100D30000080BB000024F4000090D00300000034C9
:100D400005494FF6FF030A681A4060F30A22034878
:100D500010430860704700BF0CED00E00000FA058A
:100D6000F0B503AF4DF804BD124B4FF0FF361C68D1
:100D70009C46C4F30224E51E38BF002506FA05F39D
:100D80009A4384F00703042B28BF042306FA03F3D5
:100D9000994300F00F03A940043B1143064A634402
:100DA00009010244002848BF03F10C0211705DF8EC
:100DB00004BBF0BD0CED00E000E400E0411E0020AB
:100DC000B0EB116F1CBF01207047044AF023516043
:100DD00003490B70072190601160704710E000E03C
:100DE00023ED00E08A060D4A0BD4136801F01101CF
:100DF00083431360112953681ABFC0431840184336
:100E00000AE0136801F022010343136022295168AC
:100E100014BF21EA00000843506070477048025632
:100E2000042823D8F0B503AF4DF804BD104D1823A6
:100E30006FF0807405F10802DFE800F00E03090D81
:100E4000070019236FF0007406E02A1D04E01A233E
:100E50006FF0806400E02A4601FA03F01168214037
:100E6000084310605DF804BBBDE8F040704700BF68
:100E700034480256014800F003B800BF3C4802560F
:100E8000016841F4807101607047D4D4F0B503AFBC
:100E90002DE9FC0F6A4A10234FF0000E4FF00009B5
:100EA0004FF0000B4FF0000C9042664A08BF0B2336
:100EB00003934EF2FF0302444FEAB222029292B22F
:100EC00023FA02F2019200F1200200920A6832FA3B
:100ED0000CF400F0B080012303FA0CF412EA0408C9
:100EE00000F0A080CDE9049ED1F8049009F0030E33
:100EF000AEF10102012A4FF0030202FA0BF512D8FB
:100F0000826822EA0506D1E9022303FA0BF3334390
:100F10008360C9F30013466803FA0CF326EA04045D
:100F20002343436005E08A68BEF1030F08BF012A2E
:100F300024D0C36802FA0BF24FEA4C0AAB43ED43EC
:100F40001A43BEF1020FC2601ED1059A0F2302F0B0
:100F50001C0203FA02FE6FF0030303EA5C04009B29
:100F60001E5926EA0E0E0E6906FA02F242EA0E0237
:100F70001A51D1F8049009F0030E05E04FF0030E6A
:100F8000DA460EFA0BF2D54303680EFA0AF22B404A
:100F90001A43026019F4403FDDE9049E42D02A4A18
:100FA0002CF003036032D458029B039D0F2B07D80B
:100FB000019B039DDB0703D0029B244D55F8235072
:100FC00009F018030F269E4005FA03F3B4434FEAD5
:100FD0009C06234342F826301B4ED6F880204C68EE
:100FE00042EA0803E50358BF22EA0803C6F8803046
:100FF000A503D6F8842042EA080358BF22EA080372
:10100000C6F88430E502326842EA080358BF22EA93
:1010100008033360A402726842EA080358BF22EA58
:10102000080373600EF1040E09F108090BF1020BBD
:101030000CF1010C4AE706B0BDE8000FF0BD00BF9F
:10104000004002560000FEA900500256F410107035
:101050001823002A08BF2823C1507047B0B502AF3B
:1010600040F20114036B02EA0405A54201D10B43CF
:1010700002E0D40548BF8B43036340F2022402EA36
:101080000405436BA54201D10B4302E0920548BF22
:101090008B434363B0BD80B56F460320FFF750FE1E
:1010A000FFF794FD0F2000F007F808B1012080BD84
:1010B00000F05DF9002080BDF0B503AF4DF804BD30
:1010C0000F4E04463078B0B14FF47A71B1FBF0F0B6
:1010D0000C490968B1FBF0F0FFF770FE01250F2CF9
:1010E0000AD848B94FF0FF30214600220025FFF70B
:1010F00037FE746000E0012528465DF804BBF0BDB2
:1011000004000034000000340348044900780A68F1
:1011100010440860704700BF04000034140000341D
:1011200001480068704700BF14000034B0B502AF3A
:101130000446FFF7F5FF05460548611C007818BF17
:101140000444FFF7EDFF401BA042FAD3B0BD00BF3F
:1011500004000034E0B502AF3B48016889030ED4B7
:10116000BFF34F8F0021BFF36F8FC0F83C1200F028
:1011700071F8016841F40031016000F06BF801681A
:10118000C90326D400210167BFF34F8FC46EE30863
:10119000C4F34E32C4F3C9049B07661C510143F6E5
:1011A000E07446F001E001EA04051D44C0F84C5229
:1011B00005F140450FF007C02039551E002A2A4688
:1011C000EFD1BFF34F8F016841F48031016000F02F
:1011D00041F8FFF760FF00F043F81C484FF400713E
:1011E000C0F8001820210068019001980120FFF745
:1011F000F9FD174C4FF4806140F201322046FFF7B1
:101200002DFF04F500604FF4806140F20132FFF7DA
:1012100025FF002000F0E6F8012000F0E3F80020B0
:1012200000F010F9012000F0FDF84FF4FA70FFF71C
:101230007DFF002000F0F6F8012000F003F94FF4E4
:10124000FA70FFF773FFEAE714ED00E058820256E8
:1012500000100256BFF34F8FBFF36F8F7047D4D487
:10126000F0B503AF2DE9000B2DED0A5B6C461421A0
:10127000204600F0FDF832481021324D012200F0E6
:1012800065F84FF4004100F061F84FF4804100F040
:101290005DF84021C0F800184FF4806100680590A7
:1012A00005982846FFF7D4FE05F500664FF48061E7
:1012B00001223046FFF7CCFE15A0DFF88C802146D6
:1012C00090ED009F284684ED009FC04714A04FF08A
:1012D0000909214690ED001F05F53050CDF810901A
:1012E00084ED001FC04712A02146CDF8109090ED6C
:1012F000001F05F5205084ED001FC04730462146F1
:1013000084ED009FC047BDEC0A5BBDE8000BF0BD5B
:1013100000040000010000000000000000000000C8
:10132000FF000000020000000000000003000000B9
:101330003500000002000000000000000300000073
:101340005C820256001002568D0A1070C0F8001818
:101350000168059105997047FEE7FEE7FEE7FEE7A5
:10136000FEE7FEE7704770477047FFF7CDBE80B5D8
:101370006F46FFF77FFD01200121BDE88040FFF7A8
:101380004FBDD4D40F4880F30A880F488546FFF735
:10139000DFFB0E480E490F4A002302E0D458C45028
:1013A0001B1DC4188C42F9D30B4A0C4C002301E0DE
:1013B0001360121DA242FBD300F066F8FFF7CAFECD
:1013C000FEE7000000F81F34000020340000003465
:1013D0000C0000346011107010000034180000344C
:1013E000FEE7D4D4DCB504AF044601280BD08CB999
:1013F000FFF740FD0A484FF48041C0F8001800682C
:101400000090009806E006484021C0F800180068E7
:10141000019001982046BDE8DC4000F003B800BF11
:101420005C82025618B10549012200F01BB804483D
:101430004FF480610022FFF70BBE00BF3411107023
:101440000018025618B10549002200F00BB80448F4
:101450004FF480610122FFF7FBBD00BF3411107013
:101460000018025651F820004FF48061FFF7F0BDDC
:101470000A46002100F000B800239A4208BF7047D6
:10148000C1540133F9E7D4D4B0B502AF0B4C0C48CA
:10149000001B85101DB101CC8047013DFAE70948CA
:1014A00008B100F000F8084C0848001B85101DB179
:1014B00001CC8047013DFAE7B0BD00BF4C11107070
:1014C0005011107000000000501110705011107079
:1014D00001480249084700000C000034E110107078
:1014E0000249401A02490860704700BF0800000026
:0414F00010000034B4
:1014F40000000000010000000200000003000000E2
:1015040004000000050000000600000007000000C1
:1015140000000000000000000000000000000000C7
:101524000000000008000000090000000A0000009C
:081534000018025600100256D7
:10153C0014F6FF7F01000000B0FFFF7F01000000E8
:04154C00D11010703A
:0C1560000090D00301000000100000000B
:04000005E02013855F
:00000001FF
