:0200000470107A
:1004000000002034812010704D2010704F2010709B
:10041000512010705320107055201070572010700C
:1004200000000000000000000000000059201070D3
:100430005B201070000000005D2010705F201070C5
:10044000DD20107000000000DD201070DD20107035
:10045000DD201070DD201070DD201070DD201070A8
:10046000DD20107000000000DD201070DD20107015
:10047000DD201070DD201070DD2010700000000005
:10048000DD20107000000000DD201070DD201070F5
:10049000DD201070DD201070DD201070DD20107068
:1004A000DD201070DD201070DD201070DD20107058
:1004B000DD201070DD201070DD201070DD20107048
:1004C000DD201070DD201070DD201070DD20107038
:1004D0000000000000000000DD201070DD20107022
:1004E000DD2010700000000000000000000000008F
:1004F0000000000000000000DD201070DD20107002
:10050000DD2010700000000000000000000000006E
:10051000DD201070DD201070DD201070DD201070E7
:10052000DD201070DD201070DD201070DD201070D7
:10053000DD201070DD201070DD201070DD201070C7
:10054000DD201070DD201070DD201070DD201070B7
:10055000DD201070DD201070DD201070DD201070A7
:10056000DD201070DD201070DD201070DD20107097
:10057000DD201070DD201070DD201070DD20107087
:10058000DD201070DD201070DD201070DD20107077
:10059000DD201070DD201070DD201070DD20107067
:1005A000DD201070DD201070DD201070DD20107057
:1005B000DD201070DD201070DD201070DD20107047
:1005C000DD201070DD201070DD201070DD20107037
:1005D000DD201070DD201070DD201070DD20107027
:1005E000DD201070DD201070DD201070DD20107017
:1005F000DD201070DD201070DD201070DD20107007
:10060000DD201070DD201070DD201070DD201070F6
:10061000DD201070DD201070DD201070DD201070E6
:100620006520107071201070DD201070DD201070BA
:10063000DD201070DD201070DD201070DD201070C6
:10064000DD201070DD201070DD201070DD201070B6
:10065000DD201070DD201070DD201070DD201070A6
:10066000DD201070DD201070DD201070DD20107096
:10067000DD201070DD201070DD201070DD20107086
:10068000DD201070DD201070DD201070DD20107076
:10069000DD201070DD201070DD201070DD20107066
:1006A000DD201070DD201070DD201070DD20107056
:1006B000DD201070DD201070DD201070DD20107046
:1006C000DD201070DD201070DD201070DD20107036
:1006D000DD201070DD201070DD201070DD20107026
:1006E000DD201070DD201070DD201070DD20107016
:1006F000DD201070DD201070DD201070DD20107006
:10070000DD201070DD201070DD201070DD201070F5
:10071000DD201070DD201070DD201070DD201070E5
:10072000DD201070DD201070DD201070DD201070D5
:10073000DD201070DD201070DD201070DD201070C5
:0C07400000000000DD201070DD201070B3
:10075000174804221A4BD0F8841041F44061C0F8C5
:100760008410D0F82C1262F39C610022C0F82C1285
:1007700010490A604A608A60CA600A614A618A61F7
:100780000D49012201600D49C1F80028096801687E
:10079000196019680B490A60D0F8801041F47001A3
:1007A000C0F880100848016841F47001016070478A
:1007B00008ED00E080E300E000041070788202564B
:1007C000108000567892025688ED02E05448016885
:1007D000C1F301525349F0B503AF4DF804BDDFE852
:1007E00002F002089A11806A5349C0F3C110C14057
:1007F00091E0406A4F4980055CBF40F60011C0F2AD
:100800003D0188E0D0F8A420C2F30172DFE802F0D5
:10081000021C0A13026E13013BD400F1680300F1BD
:10082000640418E0D0F88020130132D400F188036A
:1008300000F184040FE0D0F89020130129D400F1D6
:10084000980300F1940406E0026F130121D400F133
:10085000780300F1740424689FED341A1B680125A5
:1008600024F07F4400EE104AC2F30554B8EE400A6B
:1008700020EE011A00EE104AC2F30B24B8EE402A13
:1008800000EE104AC3F30264C3F3C263B8EE400A39
:1008900008E09FED250A002300240025B0EE401A51
:1008A000B0EE402AC2F30272032A15D8DFE802F044
:1008B00002091512816A204AC1F3C11122FA01F11D
:1008C0000BE0416A89051B495CBF40F60011C0F28C
:1008D0003D0102E0164900E00021ADB131EE000A11
:1008E00001EE101A04FB03F1B8EE411A20EE010AE2
:1008F00001EE101A80EE020AB8EE411A80EE010AEB
:10090000BCEEC00A10EE101AD0F8A400012252FA70
:10091000A0F0B1FBF0F1094801605DF804BBF0BD47
:1009200020800256006CDC020000000000008033D2
:100930000080BB000024F4000090D00300000034CD
:1009400005494FF6FF030A681A4060F30A2203487C
:1009500010430860704700BF0CED00E00000FA058E
:10096000F0B503AF4DF804BD124B4FF0FF361C68D5
:100970009C46C4F30224E51E38BF002506FA05F3A1
:100980009A4384F00703042B28BF042306FA03F3D9
:10099000994300F00F03A940043B1143064A634406
:1009A00009010244002848BF03F10C0211705DF8F0
:1009B00004BBF0BD0CED00E000E400E0002809D429
:1009C00000F01F010122C0F34A1002FA01F1024AAD
:1009D00042F82010704700BF00E100E0411E0020F7
:1009E000B0EB116F1CBF01207047044AF023516027
:1009F00003490B70072190601160704710E000E020
:100A000023ED00E08A060D4A0BD4136801F01101B2
:100A100083431360112953681ABFC0431840184319
:100A20000AE0136801F02201034313602229516890
:100A300014BF21EA00000843506070477048025616
:100A4000F0B503AF2DE9FC0F6A4A10234FF0000EFA
:100A50004FF000094FF0000B4FF0000C9042664A37
:100A600008BF0B2303934EF2FF0302444FEAB22266
:100A7000029292B223FA02F2019200F12002009255
:100A80000A6832FA0CF400F0B080012303FA0CF487
:100A900012EA040800F0A080CDE9049ED1F8049089
:100AA00009F0030EAEF10102012A4FF0030202FA2F
:100AB0000BF512D8826822EA0506D1E9022303FA6F
:100AC0000BF333438360C9F30013466803FA0CF356
:100AD00026EA04042343436005E08A68BEF1030F5D
:100AE00008BF012A24D0C36802FA0BF24FEA4C0A6D
:100AF000AB43ED431A43BEF1020FC2601ED1059A0B
:100B00000F2302F01C0203FA02FE6FF0030303EA54
:100B10005C04009B1E5926EA0E0E0E6906FA02F2CC
:100B200042EA0E021A51D1F8049009F0030E05E0D2
:100B30004FF0030EDA460EFA0BF2D54303680EFAB5
:100B40000AF22B401A43026019F4403FDDE9049E8B
:100B500042D02A4A2CF003036032D458029B039DF2
:100B60000F2B07D8019B039DDB0703D0029B244D6D
:100B700055F8235009F018030F269E4005FA03F399
:100B8000B4434FEA9C06234342F826301B4ED6F866
:100B900080204C6842EA0803E50358BF22EA0803B4
:100BA000C6F88030A503D6F8842042EA080358BF6F
:100BB00022EA0803C6F88430E502326842EA0803F4
:100BC00058BF22EA08033360A402726842EA0803AD
:100BD00058BF22EA080373600EF1040E09F10809F8
:100BE0000BF1020B0CF1010C4AE706B0BDE8000F57
:100BF000F0BD00BF004002560000FEA900500256A2
:100C000060211070B0B502AF40F20114036B02EA2C
:100C10000405A54201D10B4302E0D40548BF8B4334
:100C2000036340F2022402EA0405436BA54201D1AA
:100C30000B4302E0920548BF8B434363B0BD80B5D0
:100C40006F460320FFF77CFEFFF7C0FD0F2000F08A
:100C500007F808B1012080BD01F010FA002080BD26
:100C6000F0B503AF4DF804BD0F4E04463078B0B177
:100C70004FF47A71B1FBF0F00C490968B1FBF0F068
:100C8000FFF7ACFE01250F2C0AD848B94FF0FF3012
:100C9000214600220025FFF763FE746000E0012575
:100CA00028465DF804BBF0BD0400003400000034A9
:100CB0000348044900780A6810440860704700BF80
:100CC000040000341400003478B1D0B502AF00F055
:100CD000D9FD03D100F0ADFD01F072F900F098FDEF
:100CE000012000F07EFD00F0A0BD01207047D4D4AB
:100CF0000268B0F1A44F58D0B0F1804F11D0514BE1
:100D000098420ED0504B98420BD0504B984218BF8F
:100D1000B0F1844F05D04E4B984218BFB0F1A04FB0
:100D20007ED14B6822F070021A43B0F1804F40D060
:100D3000444B98423DD0444B98423AD0434B984262
:100D400037D0484B984218BFB0F1844F31D0404B58
:100D500098422ED0444B98422BD0444B984228D0F6
:100D6000434B984225D0434B984218BFB0F1A04F57
:100D70001FD0384B98421CD0374B984219D0384B73
:100D8000984216D03C4B984213D0344B984210D026
:100D90003A4B98420DD03A4B98420AD0394B984280
:100DA00007D0394B984204D007E04B6822F070021C
:100DB0001A43CB6822F440721A43B0B502AF0C68F4
:100DC0008D684B69B0F1A44FC562846218BFB0F161
:100DD000844F0CD109690163016841F0040101608D
:100DE0000121416122F0800119430160B0BD184C1E
:100DF000A042EFD01C4CA042ECD01C4CA042E9D049
:100E00001B4CA042E6D0154CA042E3D01B4CA042A4
:100E1000E0D01D4CA042DDD0194CA042DAD0DBE777
:100E20000C4B98423FF47DAF0B4B98423FF479AFA7
:100E30000A4B98423FF475AF094B98423FF471AFAB
:100E400073E700BF0004004000080040000C0040B1
:100E5000000400420004005000080050000400524A
:100E6000000C0050001800400040004200440042C6
:100E700000480042004C0042001800500040005260
:100E800000440052004C00520048005290F83D10BF
:100E900001293FD1022180F83D100168C868B1F1F5
:100EA000804F40F00100C86029D02248814226D0FE
:100EB0002148814223D02148814220D020488142CC
:100EC00018BFB1F1844F1AD01E48814217D01E4876
:100ED000814214D01D48814218BFB1F1A04F0ED0FD
:100EE0001B4881420BD01B48814208D01A488142DE
:100EF00005D01A48814218BFB1F1A44F0CD18868BF
:100F00001A4A734600F0CFFC9E4618BFB2F5803FE8
:100F10000BD170470120704711488142EFD0114832
:100F20008142ECD010488142E9D0724600F077FC53
:100F3000964670470004004000080040000C004046
:100F4000001800400004004200400042004C0042F3
:100F50000004005000080050000C00500018005021
:100F600000040052004C00520040005207000100F3
:100F700078B1D0B502AF00F085FC03D100F059FC88
:100F800000F009F800F044FC012000F02AFC00F019
:100F90004CBC012070477047F0B503AF4DF804BD5D
:100FA00004460068C5680669B10710D5A9070ED5C3
:100FB0006FF002010161012121778069800702D071
:100FC00000F069FC01E000F04AFC00202077700787
:100FD00012D5680710D520686FF004010161022165
:100FE0002177806910F4407F02D000F054FC01E0CA
:100FF00000F035FC00202077300711D528070FD5E9
:1010000020686FF00801016104212177C069800721
:1010100002D000F040FC01E000F021FC002020772D
:10102000F00612D5E80610D520686FF010010161B6
:1010300008212177C06910F4407F02D000F02BFC1A
:1010400001E000F00CFC00202077F00708D0E80752
:1010500006D020686FF001010161204600F070FEAB
:1010600016F4025F08D0280606D520686FF40251F6
:101070000161204600F0ABFDF00508D5280606D535
:1010800020686FF480710161204600F0A1FD7006B8
:1010900008D5680606D520686FF04001016120463A
:1010A00000F040F8B00608D5A80606D520686FF015
:1010B00020010161204600F089FDF00208D5E80218
:1010C00006D520686FF480110161204600F081FD93
:1010D000B00208D5A80206D520686FF4001101619E
:1010E000204600F077FD700208D5680206D520681A
:1010F0006FF480010161204600F06DFD300201D5E2
:10110000280201D400F0B5BB20686FF40001016132
:1011100020465DF804BBBDE8F04000F05DBD7047BF
:10112000704770477047D4D4F0B503AF4DF804BD95
:10113000036A026A22F0010223F0020302628C6851
:10114000D1F800C0456823438469B0F1A44F18BFAB
:10115000B0F1844F33D1CE6823F00C0326F004069F
:101160003343B0F1A44F1AD0B0F1844F17D0204EC2
:10117000B04214D01F4EB04211D01F4EB0420ED01C
:101180001E4EB0420BD01E4EB04208D01D4EB04293
:1011900005D01D4EB04202D01C4EB04205D1D1E95F
:1011A000056225F4407535431543194A45602240D0
:1011B00042EA0C0282614968416300F04CBB0C4E6C
:1011C000B042C8D00B4EB042C5D00B4EB042C2D0D8
:1011D0000A4EB042BFD00A4EB042BCD0094EB04217
:1011E000B9D0094EB042B6D0084EB042B3D0BBE73A
:1011F0000004004200400042004400420048004217
:1012000000040052004000520048005200440052C6
:101210008CFFFEFFF0B503AF4DF804BD00F047FBB7
:1012200022F0100223F0200302628C68D1F800C083
:10123000456843EA0413846918BFB0F1844F36D17E
:10124000CE686FF0400223F0C00302EA0612134397
:10125000B0F1A44F1AD0B0F1844F17D0184A904281
:1012600014D0184A904211D0174A90420ED0174A13
:1012700090420BD0114A904208D0154A904205D0B6
:10128000144A904202D0144A904206D125F440629A
:10129000D1E90556354342EA8505104A45602240AA
:1012A00042EA0C2282614968816300F0D4BA034E9D
:1012B000B042C5D0024EB042C2D0CCE700040052CA
:1012C0000004004200400042004400420048004246
:1012D000004000520048005200440052FF8CFFFEC4
:1012E000F0B503AF4DF804BD00F0E1FA22F48072CE
:1012F00023F4007302628C68D1F800C0456843EAA9
:101300000423C46918BFB0F1844F37D1CE6840F2CE
:10131000FF4223F44063360226EA02021343B0F18F
:10132000A44F1AD0B0F1844F17D0194A904214D06C
:10133000184A904211D0184A90420ED0174A904253
:101340000BD0124A904208D0154A904205D0154A57
:10135000904202D0144A904206D125F44052D1E97D
:101360000556354342EA0515104A4560224042EAD7
:101370000C02C2614968C16300F06DBA034EB0420D
:10138000C4D0034EB042C1D0CCE700BF000400522D
:101390000004004200400042004400420048004275
:1013A0000040005200480052004400528CFFFEFFF3
:1013B000F0B503AF4DF804BD00F079FA22F4805285
:1013C00023F4005302628C68D1F800C0456843EAF8
:1013D0000433C46918BFB0F1844F37D1CE6844F6E6
:1013E000FF7223F44043360326EA02021343B0F1AE
:1013F000A44F1AD0B0F1844F17D0194A904214D09C
:10140000184A904211D0184A90420ED0174A904282
:101410000BD0124A904208D0154A904205D0154A86
:10142000904202D0144A904206D125F44042D1E9BC
:101430000556354342EA8515104A4560224042EA86
:101440000C22C2614968016400F005BA034EB04243
:10145000C4D0034EB042C1D0CCE700BF000400525C
:1014600000040042004000420044004200480042A4
:10147000004000520048005200440052FF8CFFFE22
:10148000F0B503AF4DF804BDD0F820C0036AB0F149
:10149000844F23F48033036246680C688B68056DC3
:1014A0000ED0174A90420BD0164A904208D0164AE6
:1014B000904205D0154A904218BFB0F1A44F12D106
:1014C0004A6926F4803646EA0226154A46602A40D2
:1014D00022430265496881642CF4003141EA0341EA
:1014E000016200F0C6B90A4A9042E9D0094A904226
:1014F000E6D0094A9042E3D0084A9042E0D0E4E7BF
:101500000004004200400042004400420048004203
:1015100000040052004000520048005200440052B3
:101520008FFFFEFFF0B503AF4DF804BDD0F820C02B
:10153000036AB0F1844F23F48013036246680C6899
:101540008B68056D0ED0184A90420BD0174A904216
:1015500008D0174A904205D0164A904218BFB0F101
:10156000A44F13D14A6926F4802646EA8226164AF9
:1015700046602A4042EA042202654968C1642CF4AC
:10158000001141EA0351016200F073B90A4A904226
:10159000E8D00A4A9042E5D0094A9042E2D0094A8E
:1015A0009042DFD0E3E700BF000400420040004269
:1015B0000044004200480042000400520040005233
:1015C0000048005200440052FF8FFFFEB0B502AF4A
:1015D00000F072F904BF0220B0BD0D4601204FEAB1
:1015E000B201052984F83C0048D8DFE801F0032B5C
:1015F00013230B3320682946FFF796FD206850F827
:10160000181F0EE020682946FFF73AFF206850F8BF
:10161000501F06E020682946FFF762FE206850F858
:101620001C1F41F008010160016821F00401016004
:1016300029691FE020682946FFF7BAFE206850F8A4
:101640001C1F0EE020682946FFF7E4FD206850F8D3
:10165000181F06E020682946FFF764FF206850F84D
:10166000501F41F400610160016821F48061016054
:1016700029690902026811430160002000F007F99E
:10168000B0BDD4D4D0B502AF00F0F6F833D084F8B2
:101690003D000120374B84F83C00206882681A40E6
:1016A00082600A68D2B1102A18D0202A18BF302AC6
:1016B00014D0402A3CD0502A52D0602A40D02E4B21
:1016C0009A420BD0B2F5805F0FD0B2F5005F42D0E6
:1016D000B2F5801F18BFB2F1101F0DD181682D4BDC
:1016E0001940114341F007018160002000F0CFF85C
:1016F000012184F83D10D0BD204B9A42EED0204B02
:101700009A42EBD01F4B9A42E8D01F4B9A42E5D049
:101710001E4B9A42E2D01E4B9A4218BFB2F5001FF0
:10172000DCD0702A24D100F089F841F07701DBE7A2
:1017300000F0B4F82068174A816811404731D3E7B8
:101740004B68CA68194600F039F82068114A816868
:1017500011406731C8E700F071F841F48041C3E7F8
:1017600000F09CF820680B4A816811405731BBE7B4
:101770000120BBE78800CEFF1000200020001000F1
:1017800030001000400010005000100060001000F9
:101790007000100088FFCFFFD0B502AF036A046A63
:1017A00024F001040462846924F0F00444EA021283
:1017B000826123F00A0211430162D0BDD0B502AFAD
:1017C000036A046A24F010040462846924F47044F7
:1017D00044EA0232826123F0A00242EA011101626E
:1017E000D0BD84F8480084F83E0084F83F0084F8B7
:1017F000400084F8410084F8420084F8430084F8F3
:10180000440084F8450084F8460084F84700704797
:101810000220211D84F83D002068FFF769BA08689E
:1018200040F0010008600020704784F83D0000206F
:10183000D0BD002084F83C0020467047D1E9012348
:10184000C9681A4342EA0121826822F47F421143A7
:1018500081608168704703625DF804BBF0BD4DF89C
:1018600008ED2046FFF75CFC20465DF808EBFFF72B
:1018700058BC5DF804BBF0BD90F83C200446022043
:10188000012A7047044690F83D0000287047002167
:1018900084F83C1070472046FFF741BC4B68CA688B
:1018A0001946FFF779BF02400020062A7047036AF5
:1018B000026AB0F1A44F7047044690F83C0001283A
:1018C0007047D0B502AF01F00F010423046A8B40CA
:1018D00002FA01F124EA03030362026A114301627E
:1018E000D0BDD4D4D0B502AF0446A1B1042904D0F0
:1018F000082914BF4720462000E04520205C01282D
:1019000011D10220082910D0042914BF84F84700FF
:1019100084F845000BE094F84400012803D102202C
:1019200084F8440003E00120D0BD84F8460020681C
:101930000422FFF7C6FF00F050F929D01F4881426A
:1019400026D01F48814223D01E48814220D01E4805
:10195000814218BFB1F1844F1AD01C48814217D080
:101960001B48814214D01B48814218BFB1F1A04FDF
:101970000ED0194881420BD01848814208D018482F
:10198000814205D01748814218BFB1F1A44F08D158
:101990008868184A00F02FF918BFB2F5803F09D1C6
:1019A000D0BD11488142F3D010488142F0D0104898
:1019B0008142EDD000F019F9D0BD00BF0004004015
:1019C00000080040000C00400018004000040042E5
:1019D00000400042004C004200040050000800504B
:1019E000000C00500018005000040052004C00523F
:1019F000004000520700010090F83C300222012B09
:101A000055D0B0B502AF80F83D20026854689368A5
:101A1000B2F1844F08D02C4DAA4205D02B4DAA42DA
:101A200018BFB2F1A44F03D14D6824F470042C43C5
:101A3000274D2C400D682C43B2F1804F546029D0C3
:101A4000244CA24226D0244CA24223D0234CA242B2
:101A500020D0234CA24218BFB2F1844F1AD01A4CA6
:101A6000A24217D01F4CA24214D01F4CA24218BF52
:101A7000B2F1A04F0ED01D4CA2420BD01C4CA24282
:101A800008D01C4CA24205D01B4CA24218BFB2F198
:101A9000A44F0ED1896823F080031943916000227E
:101AA000012180F83C2080F83D10BDE8B040104690
:101AB0007047064CA242EDD0104CA242EAD0104C26
:101AC000A242E7D0EBE700BF00040042000400524E
:101AD0008FFFFFFD0004004000080040000C0040A4
:101AE0000018004000400042004C0042000400503A
:101AF00000080050000C005000180050004C00522C
:101B00000040005290F83C20012A01D102214EE011
:101B1000F0B503AF4DF804BD91E87800254A26F4EE
:101B20007C5625F47055144035432C4302F500656E
:101B30002B400D69234302F5C0542C4023434C69CC
:101B4000234302F5605402F5F04223400C6B22401F
:101B5000194C1A43CB691A438B6904EA03431343B4
:101B60000268B2F1844F08D0144CA24205D0144C44
:101B7000A24218BFB2F1A44F11D1124C01F1200CB6
:101B8000114923409CE8701001EA0651194324F0E2
:101B90000853194325F00053194341EA0C0300216F
:101BA00080F83C1053645DF804BBBDE8F040084683
:101BB000704700BFFF87F0EF0000FFEF0004004216
:101BC00000040052FFFF0FDC0000F0DC704770479C
:101BD000704770477047704770472168486CB1F193
:101BE000804F40F4004048647047086840F00100AE
:101BF00008600020704702400020062A7047D4D4B5
:101C00003E480168890312D4BFF34F8F0021BFF310
:101C10006F8FC0F83C12BFF34F8FBFF36F8F016817
:101C200041F400310160BFF34F8FBFF36F8FE0B518
:101C300002AF0168C90328D400210167BFF34F8FA9
:101C4000C46EE308C4F34E32C4F3C9049B07661C98
:101C5000510143F6E07446F001E001EA04051D4439
:101C6000C0F84C5205F140450FF007C02039551E11
:101C7000002A2A46EFD1BFF34F8F016841F480312B
:101C80000160BFF34F8FBFF36F8FFEF7D8FF00F0F7
:101C900077F800F089F800F05FF900F077F918485C
:101CA0004FF40071C0F800182021006801900198DD
:101CB0000120FEF7A7FE134C4FF4806140F2013281
:101CC0002046FEF79FFF04F500604FF4806140F26C
:101CD0000132FEF797FF0C4C00212046FFF702FE71
:101CE00020460421FFF7FEFD0848FFF7CFF808481B
:101CF000FFF7CCF8BDE88C40FEE700BF14ED00E034
:101D000058820256001002561C000034680000344D
:101D1000B400003472B6FEE7D0B502AF0649074BF7
:101D20000A5C1C5C14441C54E3B2642B12BF002BED
:101D300052420A54D0BD00BF0C00003418000034D9
:101D4000B0B502AF0A49884203D00A49884203D09D
:101D5000B0BD3425002401E0382501242046FFF7DA
:101D6000DBFF05480549005D09684851B0BD00BF6B
:101D700068000034B4000034180000341C00003443
:101D800082B007481021C0F800180168009100993E
:101D90004021C0F8001800680190019802B0704717
:101DA0005C820256D4D4D4D4B0B502AF9CB0002526
:101DB0001C211B95CDE919551795CDE915550EAC8C
:101DC000204600F08CF901A8342100F088F93E4843
:101DD0002DA191ED001F4FF0A441C0E9055580ED04
:101DE000011F0160FEF770FF08B1FFF793FF4FF48A
:101DF00080501890344818A9FFF744FC08B1FFF749
:101E000089FF3148FFF7B4F808B1FFF783FF2E4888
:101E10001795CDE9155515A9FFF7EEFD08B1FFF7A8
:101E200079FF1DA0214600221495CDE9125590EDB1
:101E3000001F254884ED001FFFF7C8FB08B1FFF71E
:101E400069FF21480EA90422FFF7C0FB08B1FFF784
:101E500061FF01AC1421204600F041F912A0214697
:101E600090ED001F14A08DED0A1F90ED001F164885
:101E70008DED061FFFF746FE08B1FFF74BFF124836
:101E800000F026F81CB0B0BD8F010000000000007B
:101E9000630000000000000060000000320000004D
:101EA0000000000008000000000000020000000028
:101EB0000000000000000000002000000000000002
:101EC00000000000000000001C000034D4D4D4D472
:101ED000F0B503AF4DF804BD2DED0A5B6C46054629
:101EE0001421204600F0FBF82868B0F1A44F20D15F
:101EF000174810210126174DC0F8001801680591F8
:101F000005994021C0F800180DA1006891ED009FCF
:101F1000214684ED009F0590049605982846FEF71B
:101F20008FFD05F50060214684ED009F0496FEF7C5
:101F300087FDBDEC0A5B5DF804BBF0BD00BF00BFD0
:101F4000000400000200000000000000000000008B
:101F50005C82025600100256DFB506AF09480A4BF4
:101F6000002442F20F7100F067F808B1FFF7D2FECB
:101F700004480394019401A9FFF73EFD08B1FFF75F
:101F8000C9FEDFBD6800003400100050DFB506AFA9
:101F900009480A4B002440F69F7100F04DF808B143
:101FA000FFF7B8FE04480394019401A9FFF724FD4C
:101FB00008B1FFF7AFFEDFBDB400003400140050DD
:101FC000F8B504AF0068184988421BD01749884209
:101FD0000AD0B0F1A44F06D116480121016014487F
:101FE0008068019001988FBD114820210022C0F81F
:101FF000001800210068039003987920FEF7B0FCD8
:1020000079200CE00A4810210022C0F800180021B5
:102010000068029002987820FEF7A2FC782004B0B5
:10202000BDE88040FEF7CABC00100050001400500C
:10203000648202566C8A025640F28F1202948461C6
:10204000C0E90032C0E90241FEF73EBEFEE7FEE70E
:10205000FEE7FEE7FEE7FEE7704770477047FEF7D2
:1020600027BED4D40148FEF797BF00BF68000034F4
:102070000148FEF791BF00BFB40000347047D4D4CC
:102080000F4880F30A880F488546FEF761FB0E482B
:102090000E490F4A002302E0D458C4501B1DC41837
:1020A0008C42F9D30B4A0C4C002301E01360121D43
:1020B000A242FBD300F01EF8FFF7A2FDFEE70000EE
:1020C00000F81F34000020340000003410000034F9
:1020D000C02110701000003400010034FEE70A46F1
:1020E000002100F000B800239A4208BF7047C15495
:1020F0000133F9E7B0B502AF0B4C0C48001B85105B
:102100001DB101CC8047013DFAE7094808B100F054
:1021100000F8084C0848001B85101DB101CC804711
:10212000013DFAE7B0BD00BFB0211070B4211070BE
:1021300000000000B4211070B42110700148024961
:1021400008470000100000344D2110700249401A69
:1021500002490860704700BF08000000100000340A
:102160000000000001000000020000000300000069
:102170000400000005000000060000000700000049
:10218000000000000000000000000000000000004F
:102190000000000008000000090000000A00000024
:1021A000B0E5FF7F01000000B8FFFF7F01000000E5
:0421B0003D2110704D
:1021C0000090D00301000000100000000101000099
:0400000570102081D6
:00000001FF
