:020000043400C6
:0400140000000000E8
:0200000470107A
:100400000000203429111070D7101070D91010700E
:10041000DB101070DD101070DF101070E110107024
:10042000000000000000000000000000E310107059
:10043000E510107000000000E7101070E910107057
:10044000851110700000000085111070851110706A
:100450008511107085111070851110708511107044
:10046000851110700000000085111070851110704A
:10047000851110708511107085111070000000003A
:10048000851110700000000085111070851110702A
:1004900085111070ED10107085111070851110709D
:1004A0008511107085111070F31010708511107087
:1004B000851110708511107085111070F910107071
:1004C0008511107001111070851110708511107058
:1004D00000000000000000008511107085111070F0
:1004E00085111070000000000000000000000000F6
:1004F00000000000000000008511107085111070D0
:1005000085111070000000000000000000000000D5
:100510008511107085111070851110708511107083
:100520008511107085111070851110708511107073
:100530008511107085111070851110708511107063
:100540008511107085111070851110708511107053
:0C07400000000000851110708511107081
:10075000174804221A4BD0F8841041F44061C0F8C5
:100760008410D0F82C1262F39C610022C0F82C1285
:1007700010490A604A608A60CA600A614A618A61F7
:100780000D49012201600D49C1F80028096801687E
:10079000196019680B490A60D0F8801041F47001A3
:1007A000C0F880100848016841F47001016070478A
:1007B00008ED00E080E300E000041070788202564B
:1007C000108000567892025688ED02E05448016885
:1007D000C1F301525349F0B503AF4DF804BDDFE852
:1007E00002F002089A11806A5349C0F3C110C14057
:1007F00091E0406A4F4980055CBF40F60011C0F2AD
:100800003D0188E0D0F8A420C2F30172DFE802F0D5
:10081000021C0A13026E13013BD400F1680300F1BD
:10082000640418E0D0F88020130132D400F188036A
:1008300000F184040FE0D0F89020130129D400F1D6
:10084000980300F1940406E0026F130121D400F133
:10085000780300F1740424689FED341A1B680125A5
:1008600024F07F4400EE104AC2F30554B8EE400A6B
:1008700020EE011A00EE104AC2F30B24B8EE402A13
:1008800000EE104AC3F30264C3F3C263B8EE400A39
:1008900008E09FED250A002300240025B0EE401A51
:1008A000B0EE402AC2F30272032A15D8DFE802F044
:1008B00002091512816A204AC1F3C11122FA01F11D
:1008C0000BE0416A89051B495CBF40F60011C0F28C
:1008D0003D0102E0164900E00021ADB131EE000A11
:1008E00001EE101A04FB03F1B8EE411A20EE010AE2
:1008F00001EE101A80EE020AB8EE411A80EE010AEB
:10090000BCEEC00A10EE101AD0F8A400012252FA70
:10091000A0F0B1FBF0F1094801605DF804BBF0BD47
:1009200020800256006CDC020000000000008033D2
:100930000080BB000024F4000090D00300000034CD
:1009400005494FF6FF030A681A4060F30A2203487C
:1009500010430860704700BF0CED00E00000FA058E
:10096000F0B503AF4DF804BD124B4FF0FF361C68D5
:100970009C46C4F30224E51E38BF002506FA05F3A1
:100980009A4384F00703042B28BF042306FA03F3D9
:10099000994300F00F03A940043B1143064A634406
:1009A00009010244002848BF03F10C0211705DF8F0
:1009B00004BBF0BD0CED00E000E400E0002809D429
:1009C00000F01F010122C0F34A1002FA01F1024AAD
:1009D00042F82010704700BF00E100E0411E0020F7
:1009E000B0EB116F1CBF01207047044AF023516027
:1009F00003490B70072190601160704710E000E020
:100A000023ED00E08A060D4A0BD4136801F01101B2
:100A100083431360112953681ABFC0431840184319
:100A20000AE0136801F02201034313602229516890
:100A300014BF21EA00000843506070477048025616
:100A4000042823D8F0B503AF4DF804BD104D18238A
:100A50006FF0807405F10802DFE800F00E03090D65
:100A6000070019236FF0007406E02A1D04E01A2322
:100A70006FF0806400E02A4601FA03F0116821401B
:100A8000084310605DF804BBBDE8F040704700BF4C
:100A900034480256014800F009B800BF3C480256ED
:100AA000014800F003B800BF34480256016841F421
:100AB000807101607047D4D4F0B503AF2DE9FC0F0D
:100AC0006A4A10234FF0000E4FF000094FF0000B60
:100AD0004FF0000C9042664A08BF0B2303934EF27E
:100AE000FF0302444FEAB222029292B223FA02F2C8
:100AF000019200F1200200920A6832FA0CF400F030
:100B0000B080012303FA0CF412EA040800F0A0807C
:100B1000CDE9049ED1F8049009F0030EAEF1010274
:100B2000012A4FF0030202FA0BF512D8826822EA7A
:100B30000506D1E9022303FA0BF333438360C9F3BB
:100B40000013466803FA0CF326EA040423434360C7
:100B500005E08A68BEF1030F08BF012A24D0C368EC
:100B600002FA0BF24FEA4C0AAB43ED431A43BEF1D3
:100B7000020FC2601ED1059A0F2302F01C0203FA75
:100B800002FE6FF0030303EA5C04009B1E5926EA91
:100B90000E0E0E6906FA02F242EA0E021A51D1F85E
:100BA000049009F0030E05E04FF0030EDA460EFA4A
:100BB0000BF2D54303680EFA0AF22B401A43026087
:100BC00019F4403FDDE9049E42D02A4A2CF0030389
:100BD0006032D458029B039D0F2B07D8019B039DC5
:100BE000DB0703D0029B244D55F8235009F018036E
:100BF0000F269E4005FA03F3B4434FEA9C062343B5
:100C000042F826301B4ED6F880204C6842EA080392
:100C1000E50358BF22EA0803C6F88030A503D6F8DA
:100C2000842042EA080358BF22EA0803C6F8843049
:100C3000E502326842EA080358BF22EA080333603B
:100C4000A402726842EA080358BF22EA08037360EC
:100C50000EF1040E09F108090BF1020B0CF1010C65
:100C60004AE706B0BDE8000FF0BD00BF00400256E5
:100C70000000FEA900500256001310701823002A2D
:100C800008BF2823C1507047426902EA010391431B
:100C900041EA034181617047B0B502AF094D044696
:100CA0002868204203D020462C6000F0D1FA686802
:100CB000204208BFB0BD6C602046BDE8B04000F0E7
:100CC000A9BA00BF0C500256B0B502AF40F20114F1
:100CD000036B02EA0405A54201D10B4302E0D405EF
:100CE00048BF8B43036340F2022402EA0405436BCE
:100CF000A54201D10B4302E0920548BF8B434363F9
:100D0000B0BD80B56F460320FFF71AFEFFF75EFD0A
:100D10000F2000F007F808B1012080BD00F0F4F9C1
:100D2000002080BDF0B503AF4DF804BD0F4E044662
:100D30003078B0B14FF47A71B1FBF0F00C4909682A
:100D4000B1FBF0F0FFF74AFE01250F2C0AD848B995
:100D50004FF0FF30214600220025FFF701FE7460AE
:100D600000E0012528465DF804BBF0BD0400003416
:100D7000000000340348044900780A681044086001
:100D8000704700BF040000342400003401480068AC
:100D9000704700BF24000034E0B502AF4948016845
:100DA00089030ED4BFF34F8F0021BFF36F8FC0F8BC
:100DB0003C1200F0BEF8016841F40031016000F01F
:100DC000B8F80168C90326D400210167BFF34F8F2B
:100DD000C46EE308C4F34E32C4F3C9049B07661C17
:100DE000510143F6E07446F001E001EA04051D44B8
:100DF000C0F84C5205F140450FF007C02039551E90
:100E0000002A2A46EFD1BFF34F8F016841F48031A9
:100E1000016000F08EF8FFF774FF00F091F82A48A7
:100E20004FF40071C0F8001820210068019001986B
:100E30000120FFF7E7FD254C254D402140F201320E
:100E40002046A84720464FF4005100F06FF804F503
:100E50008060022100F06AF804F500604FF48061C0
:100E600000F064F804F580544FF4806140F20132E0
:100E70002046A84720464FF4006100F057F80120B3
:100E800000F082F9002000F07FF9FFF77FFF114E9C
:100E90000446FFF77BFF0546FFF778FF3168001B2C
:100EA000884205D3012000F0A5F9FFF76FFF044643
:100EB000FFF76CFF7168401B8842EDD3002000F003
:100EC00099F9E6E714ED00E0588202560008025650
:100ED000C90C10700C00003403280ED8DFE800F0B5
:100EE0000217050E104801680BE00F4850F8041F68
:100EF000A1F5C87111F1C90F10D970470A4850F80F
:100F0000041FC831B1F5FA6FF7D8C82108E00648C8
:100F10000168A1F5C87111F1C80FEED26FF0C701D9
:100F200002681144016070470C00003440F2013245
:100F30002847BFF34F8FBFF36F8F7047D4D4D4D4FB
:100F4000F0B503AF2DE9800F2DED0A5B6C4614213F
:100F5000204600F093F9564808210122012600F0AE
:100F6000B1F8042100F0AEF8102100F0ABF84FF416
:100F7000004100F0A7F84FF4804100F0A3F84021B1
:100F8000C0F800184FF48061006805900598494842
:100F900000F5006582462846FFF770FE0AF5805886
:100FA0004FF4806101224046FFF768FE02964FF43D
:100FB0000410414E4FF0020921464FF4041B0190EA
:100FC0000AF58060CDF80090B04701202146CDE9B8
:100FD00001B0402000905046B04729A0214690ED36
:100FE000009F284684ED009FB0474FF488102146AB
:100FF000CDF8089001904FF4005000905046B04753
:1010000023A00925214690ED001F0AF550500495B4
:1010100084ED001FB04722A02146049590ED001FEB
:101020000AF5405084ED001FB0474046214684ED4C
:10103000009FB04701202146CDE901B04FF4006088
:1010400000904046B0471D4C152000F041F81C4D63
:101050001520A8471A2000F03BF81A20A8471F20A7
:1010600000F036F81F20A847212000F031F8212099
:10107000A847BDEC0A5B01B0BDE8000FF0BD00BFA2
:101080000004000001000000020000000000000059
:10109000FF0000000200000000000000030000004C
:1010A0003500000002000000000000000300000006
:1010B0005C82025600080256B90A1070610910706D
:1010C000BD091070C0F800180168059105997047B6
:1010D000002100222047FEE7FEE7FEE7FEE7FEE7ED
:1010E000FEE7704770477047FFF744BE0220FFF7E6
:1010F000D3BD4020FFF7D0BD4FF40060FFF7CCBD5B
:101100004FF40050FFF7C8BD80B56F46FFF7C2FC33
:1011100001200121FFF794FCFFF7C2FC032000210E
:10112000BDE88040FFF78CBC0F4880F30A880F4869
:101130008546FFF70DFB0E480E490F4A002302E0DB
:10114000D458C4501B1DC4188C42F9D30B4A0C4C04
:10115000002301E01360121DA242FBD300F09AF8B5
:10116000FFF71AFEFEE7000000F81F3400002034ED
:1011700000000034140000346013107018000034B4
:1011800030000034FEE7D4D4D0B502AF86B00446B8
:10119000012805D0CCB9FFF77DFC1148402101E0C2
:1011A0000F481021C0F8001800680190019801A9AB
:1011B00007A090ED001F0B4881ED001F50F82400A0
:1011C000FFF77AFC204600F00FF806B0D0BD00BF54
:1011D000000400000100000000000000000000000A
:1011E0005C820256401310700149002200F00CB8D6
:1011F00040131070034951F820004FF48061FFF74D
:1012000043BD00BF4013107051F820004FF48061BF
:10121000FFF734BDD0B502AF0446FFF7B7FD0B4969
:101220000A68821A142A00D2D0BDB4F5006F086093
:1012300007D0402C03D0022CF6D1012002E003207D
:1012400000E00220BDE8D040FFF746BE2800003491
:10125000D0B502AF0446FFF799FD07490A68821A24
:10126000142A08D3B4F5005F086004D10020BDE85B
:10127000D040FFF731BED0BD2C0000340A4600211B
:1012800000F000B800239A4208BF7047C1540133F0
:10129000F9E7D4D4B0B502AF0B4C0C48001B851055
:1012A0001DB101CC8047013DFAE7094808B100F0C3
:1012B00000F8084C0848001B85101DB101CC804780
:1012C000013DFAE7B0BD00BF581310705C131070F9
:1012D000000000005C1310705C131070014802499C
:1012E0000847000014000034ED1210700249401A43
:1012F00002490860704700BF080000002000003469
:1013000000000000010000000200000003000000D7
:1013100004000000050000000600000007000000B7
:1013200000000000000000000000000000000000BD
:101330000000000008000000090000000A00000092
:081340000018025600100256CD
:1013480008F4FF7F01000000B0FFFF7F01000000EC
:04135800DD12107022
:101360000090D0030100000010000000E80300001E
:04137000E80300008E
:04000005701011293D
:00000001FF
