:020000043400C6
:04000C0000000000F0
:0200000470107A
:1004000000002034755C1070255C1070275C107043
:10041000295C10702B5C10702D5C10702F5C1070BC
:10042000000000000000000000000000315C1070BF
:10043000335C107000000000355C1070375C107089
:10044000D15C107000000000D15C1070D15C1070A5
:10045000D15C1070D15C1070D15C1070D15C1070E8
:10046000D15C107000000000D15C1070D15C107085
:10047000D15C1070D15C1070D15C10700000000075
:10048000D15C107000000000D15C1070D15C107065
:10049000D15C1070D15C1070D15C1070D15C1070A8
:1004A000D15C1070D15C1070D15C1070D15C107098
:1004B000D15C1070D15C1070D15C1070D15C107088
:1004C000D15C1070D15C1070D15C1070D15C107078
:1004D0000000000000000000D15C1070D15C1070C2
:1004E000D15C10700000000000000000000000005F
:1004F0000000000000000000D15C1070D15C1070A2
:10050000D15C10700000000000000000000000003E
:10051000D15C1070D15C1070D15C1070D15C107027
:10052000D15C1070D15C1070D15C1070D15C107017
:10053000D15C1070D15C1070D15C1070D15C107007
:10054000D15C1070D15C1070D15C1070D15C1070F7
:10055000D15C1070D15C1070D15C1070D15C1070E7
:10056000D15C1070D15C1070D15C1070D15C1070D7
:10057000D15C1070D15C1070D15C1070D15C1070C7
:10058000D15C1070D15C1070D15C1070D15C1070B7
:100590003D5C1070495C1070D15C1070D15C1070C3
:1005A000D15C1070D15C1070D15C1070D15C107097
:1005B000D15C1070D15C1070D15C1070D15C107087
:1005C000D15C1070D15C1070D15C1070D15C107077
:1005D000D15C1070D15C1070D15C1070D15C107067
:1005E000D15C1070D15C1070D15C1070D15C107057
:1005F000D15C1070D15C1070D15C1070D15C107047
:10060000D15C1070D15C1070D15C1070D15C107036
:10061000D15C1070D15C1070D15C1070D15C107026
:10062000D15C1070D15C1070D15C1070D15C107016
:10063000D15C1070D15C1070D15C1070D15C107006
:10064000D15C1070D15C1070D15C1070D15C1070F6
:10065000D15C1070D15C1070D15C1070D15C1070E6
:10066000D15C1070D15C1070D15C1070D15C1070D6
:10067000D15C1070D15C1070D15C1070D15C1070C6
:10068000D15C1070D15C1070D15C1070D15C1070B6
:10069000D15C1070D15C1070D15C1070D15C1070A6
:1006A000D15C1070D15C1070D15C1070D15C107096
:1006B000D15C1070D15C1070D15C1070555C107002
:1006C000D15C1070D15C1070D15C1070D15C107076
:1006D000D15C1070D15C1070D15C1070D15C107066
:1006E000D15C1070D15C1070D15C1070D15C107056
:1006F000D15C1070D15C1070D15C1070D15C107046
:10070000D15C1070D15C1070D15C1070D15C107035
:10071000D15C1070D15C1070D15C1070D15C107025
:10072000D15C1070D15C1070D15C1070D15C107015
:10073000D15C1070D15C1070D15C1070D15C107005
:0C07400000000000D15C1070D15C107053
:1007500040B584B002AE009605F04EFC029A039BB1
:1007600004B040BD174804221A4BD0F8841041F45D
:100770004061C0F88410D0F82C1262F39C61002212
:10078000C0F82C1210490A604A608A60CA600A6187
:100790004A618A610D49012201600D49C1F80028B2
:1007A00009680168196019680B490A60D0F880105F
:1007B00041F47001C0F880100848016841F47001EC
:1007C0000160704708ED00E080E300E00004107075
:1007D00078820256108000567892025688ED02E028
:1007E00054480168C1F301525349F0B503AF4DF8C5
:1007F00004BDDFE802F002089A11806A5349C0F391
:10080000C110C14091E0406A4F4980055CBF40F68D
:100810000011C0F23D0188E0D0F8A420C2F30172BB
:10082000DFE802F0021C0A13026E13013BD400F150
:10083000680300F1640418E0D0F88020130132D47A
:1008400000F1880300F184040FE0D0F89020130138
:1008500029D400F1980300F1940406E0026F13011B
:1008600021D400F1780300F1740424689FED341A58
:100870001B68012524F07F4400EE104AC2F30554A2
:10088000B8EE400A20EE011A00EE104AC2F30B2423
:10089000B8EE402A00EE104AC3F30264C3F3C26309
:1008A000B8EE400A08E09FED250A00230024002549
:1008B000B0EE401AB0EE402AC2F30272032A15D8F5
:1008C000DFE802F002091512816A204AC1F3C11162
:1008D00022FA01F10BE0416A89051B495CBF40F631
:1008E0000011C0F23D0102E0164900E00021ADB167
:1008F00031EE000A01EE101A04FB03F1B8EE411AC2
:1009000020EE010A01EE101A80EE020AB8EE411A3A
:1009100080EE010ABCEEC00A10EE101AD0F8A40056
:10092000012252FAA0F0B1FBF0F1094801605DF834
:1009300004BBF0BD20800256006CDC020000000009
:10094000000080330080BB000024F4000090D0033E
:100950000000003405494FF6FF030A681A4060F3AF
:100960000A22034810430860704700BF0CED00E006
:100970000000FA05F0B503AF4DF804BD124B4FF07F
:10098000FF361C689C46C4F30224E51E38BF0025D0
:1009900006FA05F39A4384F00703042B28BF0423C7
:1009A00006FA03F3994300F00F03A940043B1143F7
:1009B000064A634409010244002848BF03F10C02BF
:1009C00011705DF804BBF0BD0CED00E000E400E048
:1009D000002809D400F01F010122C0F34A1002FAD6
:1009E00001F1024A42F82010704700BF00E100E028
:1009F000411E0020B0EB116F1CBF01207047044A5C
:100A0000F023516003490B7007219060116070471B
:100A100010E000E023ED00E0F0B503AF4DF8048DE9
:100A2000044603F07DFF002C6CD02668944A0546EE
:100A300096425CD09348864259D09348864256D01D
:100A40009248864253D09248864250D0914886427E
:100A50004DD0914886424AD09048864247D090482F
:100A6000864244D08F48864241D08F4886423ED04D
:100A70008E4886423BD08E48864238D08D4886428A
:100A800035D08D48864232D08C4886422FD08C4853
:100A900086422CD08B48864229D08B48864226D06D
:100AA0008A48864223D08A48864220D08948864296
:100AB0001DD0894886421AD08848864217D0884877
:100AC000864214D08748864211D0874886420ED08D
:100AD000864886420BD08648864208D085488642A2
:100AE00005D08548864202D0844886420CD1E06A0F
:100AF000410402D4616A102904D8400004D4A06AD9
:100B0000102801D901201DE20020904684F84C00F5
:100B100094F8540020B904F16000142105F019FA8A
:100B2000022084F85400706940F00600706120686B
:100B30004169C90708D003F0F3FE401B0528F6D928
:100B4000012003221021FAE1216A426904F1100513
:100B500022F44302114341612ECD2A43114341EA5D
:100B6000030267498C4688422FD0664B98422CD0AE
:100B7000654B984229D0654B984226D0644B9842E9
:100B800023D0644B984220D0634B98421DD0634BD6
:100B900098421AD0624B984217D0624B984214D0B8
:100BA000614B984211D0614B98420ED0604B9842F5
:100BB0000BD0604B984208D05F4B984205D05F4BFA
:100BC000984218BF404540F0BB8004F124064FF026
:100BD0007C7168CE01EB05514FF47C7505EB031376
:100BE00001F07C71314303F47C7319430A43016CB7
:100BF00001F0802111430164D4E9021322791143E9
:100C0000226B0A43B3F5007F00F05781B3F5806F84
:100C100040F0558160452FD03A4988422CD03A495E
:100C2000884229D03949884226D03949884223D080
:100C30003849884220D0384988421DD037498842F7
:100C40001AD03749884217D03649884214D03649DD
:100C5000884211D0354988420ED0354988420BD0A0
:100C60003449884208D03449884205D03349884203
:100C700018BF404540F0698142F480621FE100BF27
:100C800050000248D000024850010248D0010248FA
:100C900050020248D002024850030248D0030248E2
:100CA00050040248D004024850050248D0050248CA
:100CB00050060248D006024850070248D0070248B2
:100CC00050000258D000025850010258D00102587A
:100CD00050020258D002025850030258D003025862
:100CE00050040258D004025850050258D00502584A
:100CF00050060258D0060258D00702585007025832
:100D000050100240D010024050110240D011024059
:100D100050120240D012024050130240D013024041
:100D200050140240D014024050150240D015024029
:100D300050160240D016024050170240D017024011
:100D4000E04B98423FF441AFDF4B98423FF43DAF58
:100D5000DE4B98423FF439AFDD4B98423FF435AF5C
:100D6000DC4B98423FF431AFDB4B98423FF42DAF60
:100D7000DA4B98423FF429AFD94B98423FF425AF64
:100D8000D84B98423FF421AFD74B98423FF41DAF68
:100D9000D64B98423FF419AFD54B98423FF415AF6C
:100DA000D44B98423FF411AFD34B98423FF40DAF70
:100DB000D24B98423FF409AFE54B98423FF405AF60
:100DC000E44B98423FF401AFE34B98423FF4FDAE51
:100DD000E24B98423FF4F9AEE14B98423FF4F5AE56
:100DE000E04B98423FF4F1AEDF4B98423FF4EDAE5A
:100DF000DE4B98423FF4E9AEDD4B98423FF4E5AE5E
:100E0000DC4B98423FF4E1AEDB4B98423FF4DDAE61
:100E1000DA4B98423FF4D9AED94B98423FF4D5AE65
:100E2000D84B98423FF4D1AED74B98423FF4CDAE69
:100E3000D64B98423FF4C9AEB14B98423FF4C5AE91
:100E4000B04B98423FF4C1AEAF4B98423FF4BDAEB9
:100E5000AE4B98423FF4B9AEAD4B98423FF4B5AEBD
:100E6000AC4B98423FF4B1AEAB4B98423FF4ADAEC1
:100E7000AA4B98423FF4A9AEA94B98423FF4A5AEC5
:100E8000A84B98423FF4A1AEA74B98423FF49DAEC9
:100E9000A64B98423FF499AEA54B98423FF495AECD
:100EA000A44B98423FF491AEA34B98423FF48DAED1
:100EB000A24B98423FF489AE99E642F40072416C2D
:100EC000B34B19409E4B0A43616B0A4342640022B4
:100ED000984282642CD09B4B984229D09A4B9842DE
:100EE00026D09A4B984223D0814B984220D0814BF8
:100EF00098421DD0804B98421AD0804B984217D010
:100F00009F4B984214D09F4B984211D09E4B9842D1
:100F10000ED09E4B98420BD0854B984208D0854B03
:100F2000984205D0844B984202D0844B984201D11C
:100F300042658265216500210122C1670020A1650B
:100F400084F854205DF8048BF0BD5E4988423FF47C
:100F500093AE5D4988423FF48FAE5C4988423FF4CE
:100F60008BAE5B4988423FF487AE5A4988423FF4D2
:100F700083AE594988423FF47FAE584988423FF4D6
:100F80007BAE574988423FF477AE564988423FF4DA
:100F900073AE554988423FF46FAE544988423FF4DE
:100FA0006BAE534988423FF467AE524988423FF4E2
:100FB00063AE514988423FF45FAE504988423FF4E6
:100FC0005BAE634988423FF457AE624988423FF4C2
:100FD00053AE614988423FF44FAE604988423FF4C6
:100FE0004BAE5F4988423FF447AE5E4988423FF4CA
:100FF00043AE5D4988423FF43FAE5C4988423FF4CE
:101000003BAE5B4988423FF437AE5A4988423FF4D1
:1010100033AE594988423FF42FAE584988423FF4D5
:101020002BAE574988423FF427AE564988423FF4D9
:1010300023AE554988423FF41FAE544988423FF4DD
:101040001BAE2F4988423FF417AE2E4988423FF429
:1010500013AE2D4988423FF40FAE2C4988423FF42D
:101060000BAE2B4988423FF407AE2A4988423FF431
:1010700003AE294988423FF4FFAD284988423FF436
:10108000FBAD274988423FF4F7AD264988423FF43B
:10109000F3AD254988423FF4EFAD244988423FF43F
:1010A000EBAD234988423FF4E7AD224988423FF443
:1010B000E3AD214988423FF4DFAD204988423FF447
:1010C000DBADFCE6D000024850010248D0010248E6
:1010D00050020248D002024850030248D00302489E
:1010E00050040248D004024850050248D005024886
:1010F00050060248D006024850070248D00702486E
:1011000050000258D000025850010258D001025835
:1011100050020258D002025850030258D00302581D
:1011200050040258D004025850050258D005025805
:1011300050060258D0060258D007025850070258ED
:1011400050160240D016024050170240D0170240FD
:1011500050100250D010025050110250D0110250C5
:1011600050120250D012025050130250D0130250AD
:1011700050140250D014025050150250D015025095
:1011800050160250D016025050170250D01702507D
:101190000021803C48B1F0B503AF4DF804BD90F894
:1011A0004C40012C03D1022033E001207047012480
:1011B00080F84C4090F85440012C24D1022480F84F
:1011C0005440002484650468456EA66CC3EA060397
:1011D000A3644FF4FE43E360E1642265616941F476
:1011E000BA4161611DB1616941F400716161006FD3
:1011F00018B1606940F400506061606940F001001E
:101200006061002005E0002180F84C1040218165DC
:1012100001205DF804BBF0BDB0B502AF044603F099
:101220007FFB2CB3054694F85400022822D1206895
:10123000416941F004014161052084F854002168AE
:10124000086980041AD403F06BFB401B0628F6D310
:10125000A06D40F01000A065032084F8540094F8BD
:10126000500000064FF0010044BF616F08731BE09F
:101270000120B0BD2020A065012015E048690122B1
:1012800040F002004861042084F854004FF4FE400E
:10129000C86084F8542094F8500000064FF0000015
:1012A00042BF636F1A738864002184F84C10B0BD8C
:1012B00080B190F8541002290AD1042142F20402AC
:1012C00080F8541000684169114341610020704763
:1012D0002021816501207047B0B502AF0446006847
:1012E00040F6FF71012500F57B6320EA0101C3F39D
:1012F000C413CA68096905FA03F319401A40114377
:1013000000F0AA800169490509D54169490506D55A
:101310004FF48061C160A16D41F00101A1650169D7
:10132000090509D54169090506D54FF40061C16079
:10133000A16D41F00201A1650169C90409D54169A6
:10134000C90406D54FF48051C160A16D41F004017C
:10135000A1650169490409D54169490406D54FF4DD
:101360008041C160A16D41F00801A1650169890555
:101370000AD54169890507D54FF40071C160616ED6
:1013800011B12046884720680169890427D5416941
:10139000890424D54FF40051C16094F854100429F5
:1013A00015D1416921F400514161416941F00201C7
:1013B0004161012184F8541094F85020120603D59D
:1013C000626F1173002181640020E16E3DE0052110
:1013D00084F85410216F11B12046884720680169B4
:1013E000C90520D54169C9051DD594F850100906D5
:1013F00004D4816C69B904F1540108E0C16F41B9AA
:10140000816C31B9012184F85410616F0C310122D3
:101410000A70002184F84C104FF44071C160216EB5
:1014200009B120468847A06DB0B12068416941F0FC
:1014300002014161012084F8540094F8501009061B
:1014400044BF616F0873A16E002084F84C0019B18D
:101450002046BDE8B0400847B0BD02460120DAB3DF
:10146000D0B502AF126840F6FF7302F57B6422EA42
:101470000303C4F3C414A040CC0607D501F0110443
:10148000112C5C6814BF844304435C608C0608D54F
:1014900001F02204222C1C6814BF24EA000020431F
:1014A0001860480609D5136C01F04400442823F461
:1014B000004308BF03F500431364080609D501F093
:1014C0008800116C882821F0004108BF01F100411B
:1014D00011640020BDE8D0407047D4D4002845D026
:1014E000436F002B42D0D0B502AF90F85440026851
:1014F0005169012C04D0022C3AD111F4803137D03B
:1015000090F8541001292BD190F84C400221012C65
:1015100031D000F03DF8012180F84C10516941F4C0
:10152000BA415161416E19B1516941F40071516183
:10153000006F18B1506940F40050506118684FF6C0
:10154000FF710F4B20EA010111604FF6FC71014061
:10155000006A400860F3596360F39A635818D067D3
:101560005069002140F00100506104E0012104E0D5
:1015700000F008F80121BDE8D0400846704700BFE0
:10158000000001F8002180F84C104021816570476F
:1015900080F8541019730021816519617047D4D403
:1015A000014800F041B800BFC8800256B0B502AF94
:1015B000194A0C4601461068C0F301731748DFE86A
:1015C00003F002162909906A1649C0F3C11021FAE6
:1015D00000F0B0BD4FEA3170032884BF0020B0BDD9
:1015E000DFE800F002140E1102F000FE10E0506A75
:1015F00080050B485CBF40F60010C0F23D00B0BD56
:1016000002F09AFE04E002F0B9FE01E002F072FE80
:10161000B0FBF4F0B0BD00BF20800256006CDC02CD
:101620000024F4000090D00301210268006851FA00
:10163000A0F102F04050FFF7B9BFD4D4F0B503AF2A
:101640002DE9800F8246C078CE4C000740D5DAF8ED
:101650008801D4F8581111F440711CBF00F4407295
:10166000914212D1B0F5807F1DD103F059F90546A2
:1016700041F28836C3480068800711D403F050F95E
:10168000401BB042F6D9BF4C07E0BF490A6842F0A0
:1016900001020A600968C907E4D14FF0010919E0A5
:1016A000DAF88801B74C00F44071B1F5407F08D1F9
:1016B000D4F8582120F4407022F47C321043C4F84E
:1016C0005801D4F8580120F440700843C4F8580178
:1016D0004FF00009DAE90010AC4D4A074CD5DAF8B2
:1016E000B8E0AEF10302042A3ED8C84604F1D003A4
:1016F0004FF0100C4FF02C092825A346DFE802F02C
:101700000322131B0B000BF584734FF4802C4FF056
:101710009C09982516E00BF586734FF4002C4FF0CA
:10172000A409A0250EE00BF1E4034FF4007C4FF078
:101730005409502506E00BF1F8034FF4804C4FF0AC
:101740007C0978251A68924E5AF805505C4632405A
:10175000904E2A435AF80950C14606EB05452A43E4
:101760008A4D1A60C5F800C0D4F8582122F007024B
:1017700042EA0E02C4F85821420227D5DAF8AC003A
:10178000854988421CD08549884211D084498842C5
:1017900018D12646DAE906427E4B7D4903EB024228
:1017A000D6F8C83002F09FFEC6F8C810042105E044
:1017B00002F010FF774B764902F078FE296001E0D5
:1017C0004021A96002F0FCFDDAE90010020227D5F1
:1017D000DAF8B000734988421CD07349884211D0AE
:1017E0007249884218D12646DAE90642694B6849AF
:1017F00003EB0242D6F8C83002F075FEC6F8C810F6
:10180000042105E002F0E6FE624B614902F04EFE63
:10181000296001E04021A96002F0D2FDDAE9001060
:10182000C20127D5DAF8B400614988421CD0614969
:10183000884211D06049884218D12646DAE906422A
:10184000544B534903EB0242D6F8C83002F04BFE2A
:10185000C6F8C810042105E002F0BCFE4D4B4C490F
:1018600002F024FE296001E04021A96002F0A8FDF9
:10187000DAE900100A0537D5DAF8A820102A2AD0AC
:10188000302A14D0202A28D1DAE906C5414E3D4B32
:101890003C4C06EB0545D3F8C8603D4B1E4046EA7C
:1018A0000C032B43394DC4F8C830042311E0DAE9A6
:1018B00008C5384E334B334C06EB0545D3F8CC60A6
:1018C000334B1E4046EA0C032B43304DC4F8CC305A
:1018D00008232B6001E04023AB60D4F8483123F0AB
:1018E00030031A43C4F848214A0027D5DAF82C01FE
:1018F000324988421CD03249884209D03149884255
:1019000018D102F067FE234B214902F0CFFD0DE014
:101910002646DAE90A421F4B1D4903EB0242D6F87C
:10192000D03002F0E0FDC6F8D0101021296001E0AF
:101930004021A96002F044FDDAE90010CA0F4FD03F
:10194000DAF830012049884244D02049884209D041
:101950001F49884240D102F03DFE0E4B0C4902F077
:10196000A5FD0DE02646DAE90A420A4B084903EBD9
:101970000242D6F8D03002F0B6FDC6F8D0101021E1
:10198000296029E0048002562C480256408A0256FB
:10199000FFFF00CF0000FFFF14000103140003034A
:1019A00014000203140401031404030314040203C7
:1019B0001408010314080303140802031C000103A4
:1019C0001C0003031C0002031C0401031C0403038A
:1019D0001C0402034021A96002F0F2FCDAE90010C5
:1019E000CA0740D0DAF8BC20102A29D0302A13D0F8
:1019F000202A27D1DAE90EC5E34EE44BE34C06EB8F
:101A00000545D3F8D860E24B1E4046EA0C032B4351
:101A1000C4F8D830402310E0DAE910C5DA4EDB4BC9
:101A2000DA4C06EB0545D3F8DC60D94B1E4046EA9C
:101A30000C032B43C4F8DC308023D64D2B6001E02F
:101A40004023AB60DAF8C0306FF0FF054FF67076D8
:101A500005EB0323D4F84051CC4CB5432B43CD4D7B
:101A60001A43C4F840218A0737D5DAF8C420012A7E
:101A70002AD0032A14D0022A28D1DAE90EC5C24E90
:101A8000C24BC24C06EB0545D3F8D860C04B1E4094
:101A900046EA0C032B43BF4DC4F8D830402311E075
:101AA000DAE910C5B84EB94BB84C06EB0545D3F88A
:101AB000DC60B74B1E4046EA0C032B43B54DC4F81F
:101AC000DC3080232B6001E04023AB60D4F8403150
:101AD00023F007031A43C4F840210A0710D5DAE9B6
:101AE0002423A94DAA4E05EB0343D4F804513540F5
:101AF0002A43A84D1A43C4F804214FF400322A6047
:101B0000CA0625D5DAF8C820B2F5801F17D0B2F57D
:101B1000001F16D1DAE922C59B4E9C4B9B4C06EB6D
:101B20000545D3F800619A4B1E4046EA0C032B434F
:101B3000984DC4F800314FF480332B6001E040230E
:101B4000AB60D4F8403123F440131A43C4F8402169
:101B50008A0624D5DAF8CC20B2F5805F17D0B2F52A
:101B6000005F16D1DAE918C5874E884B874C06EB23
:101B70000545D3F8EC60864B1E4046EA0C032B4328
:101B8000844DC4F8EC304FF400632B6001E0402337
:101B9000AB60D4F8443123F4405302F01FFD4A06F1
:101BA00007D5DAF8D020D4F8443123F4E02302F04A
:101BB00015FD0A0607D5DAF8D420D4F8443123F409
:101BC000801302F00BFDCA0507D5DAF8D820D4F847
:101BD000443123F0807302F001FD8A052AD5DAF83A
:101BE000DC20012A16D0022A16D1DAE91AC5664E7F
:101BF000664B664C06EB0545D3F8F060644B1E401F
:101C000046EA0C032B43634DC4F8F0304FF4805385
:101C10002B6001E04023AB60DAF8E0306FF00F0595
:101C200005EB0313D4F8445125F0F3052B43594D2C
:101C300002F0D4FC4A0523D5DAF8E420012A16D0B4
:101C4000022A16D1DAE926C54F4E504B4F4C06EB0F
:101C50000545D3F808614E4B1E4046EA0C032B4362
:101C60004C4DC4F808314FF480232B6001E0402331
:101C7000AB60D4F8483123F003031A43C4F8482179
:101C8000CA04A0461FD5DAF8E8004349884214D0B8
:101C90004249884209D04249884210D1DAE91412F7
:101CA000394B3B4E02F0D9FB05E0DAE91E12364B08
:101CB000374E02F0B8FB296001E04021A96002F034
:101CC0007FFBDAE900108A041FD5DAF8EC00354909
:101CD000884214D03449884209D03449884210D10E
:101CE000DAE91412284B2A4E02F0B7FB05E0DAE9D4
:101CF0001E12254B264E02F096FB296001E0402182
:101D0000A96002F05DFBDAE900104A041FD5DAF899
:101D1000F0002749884214D02649884209D0264934
:101D2000884210D1DAE91412174B194E02F095FBD4
:101D300005E0DAE91E12144B154E02F074FB29601F
:101D400001E04021A96002F03BFBDAE900100A043F
:101D500040D5DAF8F4001949884235D0184988424C
:101D600009D01849884231D1DAE91412064B084EDD
:101D700002F073FB05E0DAE91E12034B044E02F099
:101D800052FB296022E000BF0000FFFF04800256E2
:101D9000FFFF00CF408A02560C0001070C0003072A
:101DA0000C0002070C0401070C0403070C040207D3
:101DB0000C0801070C0803070C0802070C0C0107AC
:101DC0000C0C03070C0C02074021A96002F0F8FA82
:101DD000DAE90010CA031FD5DAF8F800DC498842B6
:101DE00014D0DC49884209D0DB49884210D1DAE9B5
:101DF0001412DA4BDA4E02F030FB05E0DAE91E127B
:101E0000D64BD74E02F00FFB296001E04021A960BC
:101E100002F0D6FADAE900108A031FD5DAF8FC00DE
:101E2000D049884214D0D049884209D0CF4988424D
:101E300010D1DAE91412C94BC94E02F00EFB05E0CD
:101E4000DAE91E12C54BC64E02F0EDFA296001E038
:101E50004021A96002F0B4FADAE900104A0315D56E
:101E6000DAF80001C24988420AD0C249884209D141
:101E7000DAE91E12B94BBA4E02F0D5FA296001E038
:101E80004021A96002F09CFADAE900100A0315D596
:101E9000DAF80401B84988420AD0B849884209D121
:101EA000DAE91E12AD4BAE4E02F0BDFA296001E038
:101EB0004021A96002F084FADAE90010CA0215D5BF
:101EC000DAF80801AE4988420AD0AE49884209D101
:101ED000DAE91E12A14BA24E02F0A5FA296001E038
:101EE0004021A96002F06CFADAE900108A0215D5E7
:101EF000DAF80C01A44988420AD0A449884209D1E1
:101F0000DAE91E12954B964E02F08DFA296001E037
:101F10004021A96002F054FADAE900104A0215D50E
:101F2000DAF810019A4988420AD09A49884209D1C0
:101F3000DAE91E12894B8A4E02F075FA296001E037
:101F40004021A96002F03CFADAE900100A023CD50F
:101F5000DAF81421B2F5807F2ED0B2F5407F16D08A
:101F6000B2F5007F2AD1DAE912C57C4E8A4B8A4C41
:101F700006EB0545D3F8E060794B1E4046EA0C03BA
:101F80002B43864DC4F8E0304FF4807312E0DAE959
:101F90001CC5724E804B804C06EB0545D3F8F460AF
:101FA0006F4B1E4046EA0C032B437C4DC4F8F430C3
:101FB0004FF400532B6001E04023AB60D4F8743140
:101FC00023F4E0631A43C4F87421CA0125D5DAF872
:101FD0001821B2F1807F17D0B2F1007F16D1DAE973
:101FE00020C55E4E6C4B6C4C06EB0545D3F8FC608F
:101FF0005B4B1E4046EA0C032B43684DC4F8FC3093
:102000004FF400432B6001E04023AB60D4F84C3127
:1020100023F040731A43C4F84C218A013AD5DAF808
:102020001C21B2F5803F2CD0B2F5403F15D0B2F55F
:10203000003F28D1DAE90EC5484E574B564C06EB07
:102040000545D3F8D860464B1E4046EA0C032B43A7
:10205000524DC4F8D830402311E0DAE910C53F4EA4
:102060004D4B4D4C06EB0545D3F8DC603C4B1E4018
:1020700046EA0C032B43494DC4F8DC3080232B6027
:1020800001E04023AB60D4F8503123F4E0231A433D
:10209000C4F850214A0123D5DAF82021102A16D09D
:1020A000202A16D1DAE928C52C4E3B4B3A4C06EBD8
:1020B0000545D3F80C612A4B1E4046EA0C032B431E
:1020C000364DC4F80C314FF400232B6001E040235F
:1020D000AB60D4F8583123F030031A43C4F85821C8
:1020E000CA00A0461FD5DAF824012D49884214D031
:1020F0002C49884209D02C49884210D1DAE90E12C5
:10210000164B174E02F021FA05E0DAE91012134BD4
:10211000134E02F0AFF9296001E04021A96002F0FE
:102120004FF9DAE90010890054D5DAF828011F497F
:10213000884249D01E4988423ED01E49884245D136
:10214000DAE90E12054B064E02F0FFF93AE000BF45
:102150000C1001070C1003070C1002070000FFFF12
:10216000FFFF00CF0C1401070C1403070C14020727
:102170002C0801072C0802072C0C01072C0C020765
:102180002C1001072C1002072C1401072C14020735
:102190002C1801072C18020704800256408A0256A8
:1021A0001814010718140307181402071818010758
:1021B0001818030718180207DAE91012D84BD94E7D
:1021C00002F058F9296001E04021A96002F0F8F816
:1021D000DAF80400C10733D0DAF84C11012926D00F
:1021E000032912D0022924D1DAE90E23CC4DCD4E99
:1021F00005EB0343D4F8D850444635402A43CA4D32
:102200001A43C8F8D82040220FE0DAE91023C44D61
:10221000C44E05EB0343D4F8DC50444635402A4312
:10222000C14D1A43C8F8DC2080222A6001E0402218
:10223000AA60D4F8602122F007021143C4F86011AB
:1022400081071FD5DAF83401B849884214D0B8495B
:10225000884209D0B749884210D1DAE91012B04B50
:10226000B04E02F007F905E0DAE91212AC4BAD4EC0
:1022700002F0CCF8296001E04021A96002F0A0F84A
:10228000DAF8040041071FD5DAF83801AA49884274
:1022900014D0AA49884209D0A949884210D1DAE964
:1022A00010129F4B9F4E02F0E5F805E0DAE912129A
:1022B0009B4B9C4E02F0AAF8296001E04021A960E6
:1022C00002F07EF8DAF8040001071FD5DAF83C01C5
:1022D0009C49884214D09C49884209D09B49884235
:1022E00010D1DAE910128E4B8E4E02F0C3F805E0E1
:1022F000DAE912128A4B8B4E02F088F8296001E06D
:102300004021A96002F05CF8DAF80400C1061FD58C
:10231000DAF840018E49884214D08E49884209D0AB
:102320008D49884210D1DAE912127D4B7D4E02F0C0
:102330006DF805E0DAE91C12794B7A4E02F080F86C
:10234000296001E04021A96002F03AF8DAF80400BF
:1023500081061FD5DAF844018049884214D08049AB
:10236000884209D07F49884210D1DAE912126C4BB9
:102370006C4E02F04BF805E0DAE91C12684B694E2E
:1023800002F05EF8296001E04021A96002F018F82F
:10239000DAF8040041061FD5DAF84801724988428C
:1023A00014D07249884209D07149884210D1DAE9C3
:1023B00010125B4B5B4E02F05DF805E0DAE9121299
:1023C000574B584E02F022F8296001E04021A960E5
:1023D00001F0F6FFDAF80400C1051FD5DAF8500164
:1023E0006449884214D06449884209D063498842CC
:1023F00010D1DAE912124A4B4A4E02F007F805E012
:10240000DAE91C12464B474E02F01AF8296001E047
:102410004021A96001F0D4FFDAF8040081051FD53E
:10242000DAF854015649884214D05649884209D0F6
:102430005549884210D1DAE91212DE4BDC4E01F028
:10244000E5FF05E0DAE91C12DA4BD94E01F0F8FF9E
:10245000296001E04021A96001F0B2FFDAF8040030
:1024600041051FD5DAF85801D349884214D0D34921
:10247000884209D0D249884210D1DAE91212CD4BF4
:10248000CB4E01F0C3FF05E0DAE91C12C94BC84E80
:1024900001F0D6FF296001E04021A96001F090FF22
:1024A000DAF8040001051FD5DAF85C01C549884255
:1024B00014D0C549884209D0C449884210D1DAE90C
:1024C0001212BC4BBA4E01F0A1FF05E0DAE91C1272
:1024D000B84BB74E01F0B4FF296001E04021A9607C
:1024E00001F06EFFDAF80400C10455D5DAF8600196
:1024F000B74988424AD0B749884209D0B64988428C
:1025000046D1DAE91212AB4BA94E01F07FFF05E08C
:10251000DAE91C12A74BA64E01F092FF296037E0C2
:102520000000FFFFFFFF00CF408A02562004010792
:1025300020040307200402072008010720080307DE
:1025400020080207200C0107200C0307200C0207BB
:102550002010010720100307201002072014010794
:10256000201403072014020720180107201803076E
:10257000201802073000010730000307300002076F
:102580003004010730040307300402074021A9602A
:1025900001F016FFDAF8040081041FD5DAF86401AF
:1025A0008E49884214D08E49884209D08D4988428C
:1025B00010D1DAE912127F4B7D4E01F027FF05E0C2
:1025C000DAE91C127B4B7A4E01F03AFF296001E0F8
:1025D0004021A96001F0F4FEDAF8040041041FD59F
:1025E000DAF868018049884214D08049884209D0CD
:1025F0007F49884210D1DAE912126E4B6C4E01F01D
:1026000005FF05E0DAE91C126A4B694E01F018FF7C
:10261000296001E04021A96001F0D2FEDAF804004F
:1026200001041FD5DAF86C017249884214D072494E
:10263000884209D07149884210D1DAE912125D4B03
:102640005B4E01F0E3FE05E0DAE91C12594B584EEF
:1026500001F0F6FE296001E04021A96001F0B0FE22
:10266000DAF80400C1031FD5DAF870016449884222
:1026700014D06449884209D06349884210D1DAE90C
:1026800012124C4B4A4E01F0C1FE05E0DAE91C1271
:10269000484B474E01F0D4FE296001E04021A9607B
:1026A00001F08EFEDAF8040081031FD5DAF8740118
:1026B0005649884214D05649884209D05549884223
:1026C00010D1DAE912123B4B394E01F09FFE05E0C2
:1026D000DAE91C12374B364E01F0B2FE296001E0F8
:1026E0004021A96001F06CFEDAF80400400318D51F
:1026F000DAF87801484988420AD04849884209D125
:10270000DAE91E122B4B2A4E01F08DFE296001E002
:102710004021A96001F025FF206DDAF8781101F061
:102720003CFF9AF80600C00618D5DAF880013C494B
:1027300088420AD03B49884209D1DAE91E121D4B72
:102740001B4E01F070FE296001E04021A96001F0FC
:1027500008FF206DDAF8801101F01FFF9AF80600DB
:10276000000708D5DAF87C0101F0FBFE206DDAF8ED
:102770007C1101F012FF9AF80600800608D5DAF8FD
:10278000840101F0EEFE206DDAF8841101F005FFFE
:102790009AF80400000607D5DAF88C01216A21F0C6
:1027A000407141EA006020624846BDE8080FF0BD74
:1027B000FFFF00CF0000FFFF3008010730080307CC
:1027C00030080207300C0107300C0307300C0207F9
:1027D00030100107301003073010020730140107D2
:1027E00030140307301402073018010730180307AC
:1027F00030180207301C0107301C0307301C020789
:1028000034000107340003073400020734040107D1
:102810003404030734040207140C0103140C0203EC
:102820001414010314140203B0B502AF431E024690
:1028300061F100040020D3F1070570EB040480F07F
:10284000F98082F010030B4300F0B28282F0200383
:102850000B4300F0988282F400730B4300F0158262
:1028600082F480630B4300F07D8182F400630B43AC
:1028700000F0348182F480530B4300F07F8282F4B5
:1028800000530B4300F0F38182F480430B4300F0CC
:102890005C8182F400430B4300F03E8182F480337C
:1028A0000B4300F0998282F400330B4300F0548113
:1028B00082F480230B4300F0708182F400230B43E9
:1028C00000F03D8282F480130B4300F04E8282F4CC
:1028D00000130B4300F0478282F480030B4300F0A7
:1028E000618282F400030B4300F0188182F0807350
:1028F0000B4300F06D8182F000730B4300F05481B4
:1029000082F080630B4300F0928182F000630B43FE
:1029100000F00A8282F080530B4300F0298282F09B
:1029200000530B4300F01A8182F080430B4300F008
:10293000108182F000430B4300F0EC8181F0010331
:10294000134300F0058281F00203134300F05E811F
:1029500081F00403134300F0638181F00803134303
:1029600000F05C8181F01003134300F0A78181F037
:102970002003134300F0F48081F04003134300F080
:10298000068181F48073134300F0428181F4007367
:10299000134300F0FF8081F48063134300F0DC8177
:1029A00081F40063134300F0CC8181F4805313431E
:1029B00000F0F78081F40053134300F0638181F449
:1029C0008043134300F0308181F40043134300F04F
:1029D0009D8181F48033134300F0A38181F400339F
:1029E000134300F0488181F48023134300F01281E7
:1029F00081F40023134300F05A8181F480131343C0
:102A000000F0698181F40013134300F05D8181F4CB
:102A10008003134300F04D8181F40003134300F061
:102A20002D8181F08071114340F0F181AD4800F5B6
:102A300000603FE1DFE813F008001E00EB01CC016D
:102A4000EB01EB01EB013D00A74CD4F84001C0F3D2
:102A50000211A648DFE811F0080079027C0260024A
:102A6000920298021A038B02FEF79AFD216AC1F3C3
:102A7000025181E29C4CD4F8400100F007019B48D0
:102A8000DFE811F0A200A60108005602B901AF016B
:102A9000C501BF01D4F83C02400640F1BF8201F0FD
:102AA00032FD01F02BFDDFE810F0D902E202DC027A
:102AB000DF028D48D0F83C12890340F1AF82D0F894
:102AC0000411D0F8040101F008FDDFE810F0040063
:102AD00009021D02200201F089FB1AE2824CD4F89F
:102AE0004801C0F30110DFE810F06F00730104002B
:102AF0009301D4F83C02400740F19082D4F8C8001A
:102B000001F033FDD4F8C80001F0F8FCDFE810F064
:102B1000A602AF02A902AC02754830E1724CD4F8AB
:102B20007401C0F302210020DFE811F00800520117
:102B300033024302530265015B017101FEF730FD70
:102B400001F025FDC1F3023160E16A4800F57B70B8
:102B500015E164480830E0E067483EE1674809E174
:102B60006548ACE0604DD5F8480100F00300DFE8AF
:102B700010F004002F0162013E01FEF711FD296AE9
:102B8000C1F30251C840296A01F007013EE15B48E8
:102B9000083095E057481030E1E05548A0F57870CE
:102BA00002E157482430CFE04F4CD4F85001C0F335
:102BB00002414E48DFE811F008000C0113022E021A
:102BC0001F0115012B012501FEF7EAFC216AE6E051
:102BD000454CD4F84C01C0F30160DFE810F0F2007E
:102BE000F90004000201D4F83C02000440F116820E
:102BF000D4F8FC0001F0B9FCD4F8FC0001F07EFC34
:102C0000DFE810F02C0235022F023202394857E07B
:102C10003C4838E0334800F540605FE034484EE01F
:102C2000344800F580604BE0344818308CE02E4D7D
:102C3000D5F85801C0F30110DFE810F0AE00CA006B
:102C400004001001D5F83C02000340F1E781D5F8FB
:102C50000C01012151FAA0F4D5F80C0101F04EFC51
:102C6000DFE810F004003E015201550133E725482A
:102C700000F5806083E01F48143070E0194800F5CB
:102C8000806017E01C48243069E0174CD4F84401F8
:102C900000F00300DFE810F00400FA00ED00F4009B
:102CA000FEF77EFC216AC1F30251C840FEE11648DE
:102CB0000DE00C48BDE8B04001F020BA10481430D7
:102CC000BDE8B04000F00ABE0F4800F50060BDE866
:102CD000B04001F0DDB9034800F5A050BDE8B040B8
:102CE00001F074B914000003048002560080BB0098
:102CF0000C0C0007200400070C140007181800072C
:102D00000C1000070C00000714100001BA4800F571
:102D1000836019E0B94800F58160BDE8B04000F07B
:102D20001DBDB74828300FE0B649D1F85801C0F3AF
:102D30000120DFE800F06C02AEB508684AE1B24855
:102D400014E0B248A0F57770BDE8B04001F030B8AB
:102D5000BDE8B04000F066BDAB48A0F57770BDE8B7
:102D6000B04000F017BFAA4800E0A84820301BE0A0
:102D7000A7480C30BDE8B04000F04ABCA048BDE810
:102D8000B04000F01FBA9F4DD5F84401C0F30130A8
:102D9000DFE800F0021E932DFEF702FC296AC1F362
:102DA000025133E094481430BDE8B04000F052BB0B
:102DB000944CD4F84001C0F30150DFE800F0020960
:102DC0009412FEF7EDFB01F0E2FBC1F302411DE0BE
:102DD000BDE8B04000F07AB9B848BDE8B04000F0B6
:102DE000B3BA2068000740F11981606C3BE02868A5
:102DF000B349C00602E02068B349400701EAE07029
:102E0000B0BDFEF7CDFB216AC1F30161C840B0BD82
:102E1000D4F83C02000740F10181D4F8CC0001F065
:102E2000A4FBD4F8CC0001F069FBDFE810F0170137
:102E300020011A011D01D5F83C02400340F1EE804B
:102E4000D5F80801012151FAA0F4D5F8080101F0E4
:102E500055FBDFE800F00245595C3CE628680007B6
:102E600040F1DC80686CC0F3C110964921FA00F093
:102E7000B0BDD4F83C02C00400F1D280002015E1BE
:102E800020688F49C00601EAE0700FE100F01EF9EA
:102E90000CE1086800F00100404200F4FA40B0BDC7
:102EA0000868C00640F1BA80D1F858018449C0F3DF
:102EB00005300130B1FBF0F0B0BDD5F83C020005A3
:102EC00040F1AC80D5F8EC00012151FAA0F4D5F81E
:102ED000EC0001F013FBDFE800F00203171AFAE53B
:102EE00001F008FA15E0D4F83C02C00340F19680E6
:102EF000D4F8000101F039FBD4F8000101F0FEFA2A
:102F0000DFE800F0ACB5AFB201F016FA01E001F075
:102F100035FAB0FBF4F0B0BDD4F83C02000636D56B
:102F200001F0F9FA01F0EAFADFE800F01EACA6A918
:102F3000D4F83C02000640F1718001F0ECFA01F097
:102F4000DDFADFE800F08B948E9100F0BFF89DE091
:102F5000D4F83C0240061AD501F0D5FA01F0CEFAB9
:102F6000DFE800F002908A8D01F040F98CE0FEF776
:102F700017FB216AC1F30161C84087E0206852490C
:102F8000400701EAE07081E02068000757D4002084
:102F90007CE0D4F83C02C00540D5D4F8E00001F054
:102FA000E4FAD4F8E00001F0A9FADFE800F0576095
:102FB0005A5DD4F83C02800430D5D4F8F40001F016
:102FC000D4FAD4F8F40001F099FADFE800F04750A1
:102FD0004A4D20684FF4004101EA8030B0BDD4F87A
:102FE0003C0240061AD501F08EFA01F087FADFE8BC
:102FF00000F0353E383B00BF1818000714000003EE
:103000000C000007048002560C0C00070C1000078F
:103010000C140007D4F83C02000617D40020B0BD01
:10302000D4F8F00001F0A1FAD4F8F00001F066FA4B
:10303000DFE800F00238323501F0D8F834E0606C97
:103040002049C0F3C11021FA00F01FE001F063FA3B
:1030500001F054FADFE800F0020B050801F0C6F8B1
:1030600007E001F069F904E001F088F901E001F0FE
:1030700041F9B0FBF5F0B0BD01F05EF904E001F0FC
:103080007DF901E001F036F9B0FBF5F0D4F840111C
:10309000012252FA91F10EE001F04EF904E001F044
:1030A0006DF901E001F026F9B0FBF5F0D4F8441118
:1030B000C1F303110131B0FBF1F0B0BD0C100007FA
:1030C000006CDC020090D00300093D00D0B502AFD7
:1030D0003848D0F84412490601D40020D0BDD0F8B9
:1030E000581101F00701DFE801F00439191D0B3F09
:1030F0004D2B01680907F0D5406C314901F0F9B951
:10310000D0F83C12C906E8D5D0F8D010D0F8D000DD
:1031100001F0E3F9DFE800F0404943460068264942
:10312000C0061EE0D0F83C124903D6D5D0F80811ED
:10313000D0F8080101F0D1F9DFE800F02E37313482
:10314000D0F83C120903C8D5D0F80C11D0F80C0106
:1031500001F0C3F9DFE800F02029232600681749B1
:10316000400701EAE070D0BDD0F83C128905B4D523
:10317000D0F8E410D0F8E40001F0AFF9DFE800F097
:103180000C150F1201F022FA7FF5A7AF01F09BF9A1
:10319000DFE800F0020B050801F028F807E001F075
:1031A000CBF804E001F0EAF801E001F0A3F801F047
:1031B000E0B900BF04800256006CDC0200093D004B
:1031C0000090D003D0B502AF01F00EF94349884218
:1031D00044D04349884241D0424988423ED0424986
:1031E000884262D04149884265D04149884262D0D4
:1031F000404988425FD0404988425CD03F4988427C
:1032000041D03F4988423ED03E4988423BD03E496A
:10321000884238D03D4988422BD03D49884228D049
:103220003C49884225D03C49884222D03B498842CB
:103230001BD03B49884218D03A49884215D03A49B8
:10324000884212D0394988422FD0394988422CD03F
:103250003849884229D0384988422AD1FEF7A0F956
:10326000364901F06BF901F0A2B93448344901F054
:103270005AB9324801F0AAF91BD501F024F9DFE868
:1032800000F0112822252D48D0F83C12890510D5D0
:10329000D0F8E410D0F8E40001F01FF9DFE800F006
:1032A0000219131600F0A2FF15E02448016809076F
:1032B00005D40020D0BDBDE8D040FFF707BF406C6B
:1032C000204901F016B901F037F804E001F056F892
:1032D00001E001F00FF801F04CB900BF0C0000074D
:1032E0000C0400070C0800070C0C05070C00010774
:1032F0000C0401070C0801070C0C01070C00020765
:103300000C0402070C0802070C0C02070C00030750
:103310000C0403070C0803070C0C03070C0004073C
:103320000C0404070C0804070C0C04070C00050728
:103330000C0405070C0805070C0C00070480025656
:1033400000093D000090D003D0B502AF01F04CF869
:103350003149884220D03149884228D030498842BA
:103360003ED0304988423BD02F49884231D02F4946
:1033700088422ED02E49884221D02E4988421ED024
:103380002D4988420FD02D4988420CD02C498842C3
:103390000DD02C49884221D1FEF702F92A4901F0CB
:1033A000CDF801F004B92848284901F0BCB82648F6
:1033B0000168090712D5406C254901F09AB82248E6
:1033C00001F004F90AD501F07EF8DFE800F01720DB
:1033D0001A1D1D48D0F83C12890505D40020D0BD27
:1033E000BDE8D040FFF772BED0F8E410D0F8E4009A
:1033F00001F073F8DFE800F0020B050800F0F6FEBC
:1034000007E000F099FF04E000F0B8FF01E000F0F1
:1034100071FF01F0AEB800BF0C1000070C140507D7
:103420000C1001070C1401070C1002070C14020702
:103430000C1003070C1403070C1004070C140407EA
:103440000C1005070C1400070480025600093D000B
:103450000090D003D0B502AF00F0C6FF4D498842BE
:103460005FD04D49884275D04C49884272D04C4952
:1034700088426FD04B4988426CD04B49884265D016
:103480004A49884262D04A4988425FD049498842C5
:103490005CD04949884259D04849884248D0484977
:1034A000884245D04749884242D0474988423FD068
:1034B000464988423CD0464988422FD045498842F7
:1034C0002CD04549884229D04449884226D04449D5
:1034D000884223D04349884230D0434988422DD086
:1034E000424988422AD04249884227D041498842ED
:1034F00024D04149884214D04049884211D04049E3
:1035000088420ED03F4988420BD03F49884213D1B0
:10351000FEF746F83D4901F011F824E03B4801F080
:1035200007B8FEF73DF83949096AC1F301611BE0AC
:10353000364801F04BF819D40020D0BD334800685C
:1035400000F00100404200F4FA40D0BDBDE8D04098
:10355000FFF7BCBDFEF724F82C490A6A096AC2F3DA
:103560000252C1F30231D040C840D0BD00F0ABFFE1
:10357000DFE800F0020B050800F038FE07E000F07D
:10358000DBFE04E000F0FAFE01E000F0B3FE00F024
:10359000F0BF00BF2C1805072C0C00072C100007EB
:1035A0002C1400072C1800072C0801072C0C01070D
:1035B0002C1001072C1401072C1801072C080207F6
:1035C0002C0C02072C1002072C1402072C180207DF
:1035D0002C0803072C0C03072C1003072C140307DB
:1035E0002C1803072C0804072C0C04072C100407C4
:1035F0002C1404072C1804072C0805072C0C0507AD
:103600002C1005072C1405072C080007048002560F
:10361000D0B502AF00F0E8FE3C4988422CD03C49CE
:1036200088423FD03B49884242D03B4988423FD004
:103630003A49884227D03A49884224D039498842B9
:1036400046D03949884243D03849884234D0384935
:10365000884231D03749884232D0374988422FD00A
:103660003649884222D0364988421FD0354988429F
:1036700018D03549884230D1FDF792FF344900F027
:1036800099FF00F094BF3248D0F83C12490624D587
:10369000D0F8D810D0F8D80000F01FFFDFE800F015
:1036A00029322C2FBDE8D04000F0BCB82748D0BD4F
:1036B000BDE8D040FFF70ABD2548264900F033BFDA
:1036C00023480168090708D5406C234900F011BF61
:1036D0001F48D0F83C12090601D40020D0BDD0F814
:1036E000DC10D0F8DC0000F0F8FEDFE800F0020BA0
:1036F000050800F07BFD07E000F01EFE04E000F08E
:103700003DFE01E000F0F6FD00F033BF18140007A5
:1037100018180707181401071818010718140207CA
:1037200018180207181403071818030718140407B9
:1037300018180407181405071818050718140607A1
:103740001818060718140707181800070080BB0090
:103750000480025600093D000090D003D0B502AFAE
:1037600000F042FE2649884214D02649884225D0DE
:103770002549884229D02549884226D024498842B3
:103780000DD0244988420AD02349884216D02349C3
:10379000884218D1FDF704FF214900F012BF2048EC
:1037A000D0F81C1209070ED5D0F8AC10D0F8AC0038
:1037B00000F093FEDFE800F017201A1D1848D0F83B
:1037C0001C12C90605D40020D0BDBDE8D040FFF7CB
:1037D0007DBCD0F8B010D0F8B00000F07EFEDFE87D
:1037E00000F0020B050800F001FD07E000F0A4FD69
:1037F00004E000F0C3FD01E000F07CFD00F0B9BE84
:103800001C0000031C0403031C0001031C0401032F
:103810001C0002031C0402031C0003031C0400031D
:1038200024800256B0B502AF284CD4F8600100F0F5
:1038300007010020DFE801F0042F121E0C332D2EAB
:10384000FDF7AEFE00F0A3FE01F00701C840B0BDD9
:1038500020682049400701EAE070B0BDD4F83C027E
:1038600040061FD500F04FFE00F048FEDFE800F0F4
:103870000E292326D4F83C02000613D500F04BFE97
:1038800000F03CFEDFE800F0021D171A00F0AEFC6D
:1038900019E00F48B0BDBDE8B040FFF717BC206885
:1038A000000701D40020B0BD606C0B49C0F3C1100B
:1038B00021FA00F0B0BD00F03FFD04E000F05EFD35
:1038C00001E000F017FDB0FBF5F0B0BD048002563A
:1038D0000080BB0000093D000090D003D0B502AFCE
:1038E00000F082FD7C49884200F0BE807B4988421E
:1038F00000F081807A49884200F0A58079498842A9
:1039000000F0B2807849884200F0AE807749884262
:1039100000F0C0807649884275D07649884272D0DE
:10392000754988426FD0754988426CD07449884285
:1039300069D07449884266D07349884200F0858016
:103940007249884200F081807149884200F07D8090
:103950007049884268D07049884265D06F49884272
:1039600073D06F4988425FD06E4988425CD06E49FF
:10397000884259D06D49884200F085806C49884260
:1039800000F081806B4988424ED06B4988423ED01E
:103990006A4988423BD06A49884238D0694988429E
:1039A00035D06949884232D0684988422FD0684969
:1039B000884231D0674988422ED0674988422BD04F
:1039C0006649884228D06649884225D065498842A0
:1039D00022D06549884236D06449884233D0644950
:1039E000884230D06349884246D06349884243D0F8
:1039F000624988424CD1FDF7D3FD6149734600F01E
:103A00009DFD9E464FE0BDE8D040FFF75FBB5C48A0
:103A10005E490068400733E059480168090737D517
:103A2000406C5B4900F065BD5548D0F83C12C905B3
:103A30002ED5D0F8E010D0F8E00000F04EFDDFE821
:103A400000F03E4741445048D0BD4D48D0F83C12AC
:103A500009061DD5D0F8DC10D0F8DC0000F03DFDE3
:103A6000DFE800F02D363033FDF79AFD4449734608
:103A700000F0A0FD9E4616E0414842490068C0069D
:103A800001EAE070D0BD3E48D0F83C1289040CD465
:103A90000020D0BDFDF784FD39490A6A096AC2F3E6
:103AA0000252C1F3023100F082BDD0F8F410D0F818
:103AB000F40000F012FDDFE800F0020B050800F052
:103AC00095FB07E000F038FC04E000F057FC01E053
:103AD00000F010FC00F04DBD200400072008000796
:103AE00020180607201000072014000720180007E0
:103AF0002004010720080107200C010720100107FE
:103B000020140107201801072004020720080207DB
:103B1000200C0207201002072014020720180207B9
:103B20002004030720080307200C030720100307C5
:103B300020140307201803072004040720080407A3
:103B4000200C040720100407201404072018040781
:103B50002004050720080507200C0507201005078D
:103B6000201405072018050720040607200806076B
:103B7000200C06072010060720140607200C00075B
:103B800004800256006CDC020080BB0000093D008E
:103B90000090D003D0B502AF00F026FC5E49884209
:103BA00069D05E49884200F0A4805D49884262D0B5
:103BB0005C49884200F09D805B49884263D05B4944
:103BC000884200F07B805A49884200F0778059494A
:103BD000884273D05849884270D0584988426DD085
:103BE0005749884271D0574988426ED05649884219
:103BF0006BD05649884268D05549884265D05549AE
:103C0000884248D05449884245D05449884242D0DD
:103C1000534988423FD0534988423CD05249884258
:103C200050D0524988424DD0514988424AD05149DA
:103C3000884247D05049884244D05049884239D0C0
:103C40004F49884236D04F49884233D04E49884246
:103C500030D04E4988422DD04D49884213D04D492D
:103C6000884210D04C4988420DD04C4988420AD035
:103C70004B4988422ED1FDF793FC4A49734600F028
:103C800099FC9E463CE047480168090722D5406CF4
:103C9000464900F02EBC4348D0F83C12890419D59F
:103CA000D0F8F410D0F8F40000F017FCDFE800F0D2
:103CB0001E302A2D3B483C4900F035BCBDE8D040C1
:103CC000FFF704BA374800F033BC3648D0F83C124E
:103CD000C90501D40020D0BDD0F8E010D0F8E00034
:103CE00000F0FBFBDFE800F002140E1100F07EFA9A
:103CF00010E0FDF755FC2B49734600F01FFC9E4673
:103D000000F055BC00F018FB04E000F037FB01E0C8
:103D100000F0F0FA00F02DBC30000007300400077E
:103D2000340400073008000730140607300001078C
:103D3000300401073404010730080107301401077B
:103D4000300002073004020734040207300802077B
:103D5000301402073000030730040307340403075C
:103D60003008030730140307300004073004040749
:103D70003404040730080407301404073000050732
:103D8000300405073404050730080507301405071B
:103D9000300006073004060734040607300806071B
:103DA000301400070480025600093D000090D00343
:103DB000D0B502AF00F018FB5E49884200F0B18038
:103DC0005D49884264D05D49884261D05C4988423F
:103DD0005ED05C49884264D05B49884200F07C80B8
:103DE0005A49884200F078805949884274D059492C
:103DF000884271D0584988426ED05849884272D062
:103E0000574988426FD0574988426CD056498842FA
:103E100069D05649884266D05549884249D05549AB
:103E2000884246D05449884243D05449884240D0C1
:103E3000534988423DD05349884251D05249884223
:103E40004ED0524988424BD05149884248D05149BE
:103E5000884245D0504988423AD05049884237D0AC
:103E60004F49884234D04F49884231D04E49884228
:103E70002ED04E49884214D04D49884211D04D4928
:103E800088420ED04C4988420BD04C4988422FD1F1
:103E9000FDF786FB4A49734600F050FB9E4600F052
:103EA00086BB47480168090722D5406C464900F0A7
:103EB00020BB4348D0F83C12890419D5D0F8F4103F
:103EC000D0F8F40000F009FBDFE800F01E27212401
:103ED0003B483C4900F027BBBDE8D040FFF7F6B8AF
:103EE000374800F025BB3648D0F83C12C90501D44C
:103EF0000020D0BDD0F8E010D0F8E00000F0EDFADE
:103F0000DFE800F0020B050800F070F907E000F0B0
:103F100013FA04E000F032FA01E000F0EBF900F0EF
:103F200028BBFDF73DFB2649734600F043FB9E4648
:103F3000B5E700BF34000007300C00073010000761
:103F400030180007301C060734000107300C010749
:103F50003010010730180107301C01073400020738
:103F6000300C02073010020730180207301C02071D
:103F700034000307300C0307301003073018030721
:103F8000301C030734000407300C0407301004070A
:103F900030180407301C040734000507300C0507EF
:103FA0003010050730180507301C050734000607D8
:103FB000300C06073010060730180607301C0007C3
:103FC0000480025600093D000090D003D0B502AF36
:103FD00000F00AFA244988422BD02449884228D08C
:103FE000234988420ED0234988421CD02249884266
:103FF0000CD02249884209D02149884213D0214956
:10400000884214D1BDE8D040FFF760B81E4800F0E8
:10401000DDFA0CD500F057FADFE800F002211B1E94
:1040200000F0E4F81DE018480168C90608D4002033
:10403000D0BD154815490068C00601EAE070D0BD42
:10404000006D400611485CBF46F60040C0F2DC201F
:10405000D0BD00F071F904E000F090F901E000F04B
:1040600049F900F086BA00BF140C000314140003D1
:10407000140C010314140303140C0203141402039C
:10408000140C0303141401030480025600366E015D
:1040900080B56F4600F0A8F9114988421BD011493C
:1040A00088420BD01049884202D01049884203D17F
:1040B00010480168C90605D4002080BD0C4800F5F1
:1040C000006009E0006D40060B485CBF46F600400A
:1040D000C0F2DC2080BD0648BDE88040FFF776BF17
:1040E000141000011418000114180101141001012A
:1040F000140C00030480025600366E01D0B502AFE6
:1041000000F072F92C49884220D02C4988421DD0F9
:104110002B49884232D02B4988422BD02A498842E9
:1041200028D02A49884225D02949884213D02949D4
:10413000884210D0284988420DD0284988421DD095
:10414000274988421AD0274988421CD1FDF728FA0E
:10415000254900F036BA2448D0F81C12490712D578
:10416000D0F8A810D0F8A80000F0B7F9DFE800F008
:1041700017201A1DBDE8D040FEF7A8BF1A48D0F896
:104180001C12090701D40020D0BDD0F8AC10D0F823
:10419000AC0000F0A2F9DFE800F0020B050800F027
:1041A00025F807E000F0C8F804E000F0E7F801E0C7
:1041B00000F0A0F800F0DDB91400000314040003BF
:1041C0001408030314000103140401031408010379
:1041D000140002031404020314080203140003036E
:1041E000140403031408000324800256BCB504AF72
:1041F0000E4C54F87C0CC00509D42068000112D57F
:10420000206800F0E040BDE8BC4000F011B8A068B4
:10421000400008D500F0B0F905D000F0C3F902D095
:1042200000F034F9BCBD0020BCBD00BF8080025648
:104230004FEA307003281BD8DFE800F002160D1497
:1042400012480168090713D5406C1349C0F3C11027
:1042500021FA00F070470D480D490068C00601EAD8
:10426000E07070470848704708480168490701D462
:1042700000207047006C800506485CBF40F60010C7
:10428000C0F23D00704700BF0080BB0004800256B2
:10429000006CDC020024F4000090D00300EE103A21
:1042A00001EE102A9FED122AB8EE400AB8EE411A2C
:1042B00000EE021A00EE100AB8EE400A21EE000AE3
:1042C00001EE101AB8EE411A80EE010A9DED001AB7
:1042D000B8EE411A80EE010A9DED011AB8EE411ABE
:1042E00080EE010ABCEEC00A10EE100A704700BF53
:1042F00000008033BCB504AF0E4C54F88C0C800524
:1043000009D42068000112D5206800F0E040BDE823
:10431000BC40FFF78DBFA068400008D500F02CF925
:1043200005D000F03FF902D000F0B0F8BCBD00208D
:10433000BCBD00BF90800256BCB504AF0E4C54F813
:104340009C0C400509D42068000112D5206800F0BB
:10435000E040BDE8BC40FFF76BBFA068400008D557
:1043600000F00AF905D000F01DF902D000F08EF837
:10437000BCBD0020BCBD00BFA0800256BCB504AFD0
:104380000E4C54F8AC0C000509D42068000112D57D
:10439000206800F0E040BDE8BC40FFF749BFA068DE
:1043A000400008D500F0E8F805D000F0FBF802D096
:1043B00000F06CF8BCBD0020BCBD00BFB080025650
:1043C000B0B502AF074CC3B2C0F30421020EC0F374
:1043D00007401D598A40884025EA020210431851BF
:1043E000B0BD00BF44810256D0B502AF064CC3B287
:1043F000C0F30421020E1B598A401A4022FA01F12F
:1044000040EA0140D0BD00BF4481025603EB0242A6
:10441000D4F8E0304446334019431143C8F8E01063
:104420004FF48071704703EB0242D4F8F8304446F1
:10443000334019431143C8F8F8104FF480417047D6
:1044400003EB0242D4F8F43044463340194311439D
:10445000C8F8F4104FF40051704703EB0242D4F84F
:10446000E4304446334019431143C8F8E4104FF494
:104470000071704703EB0242D4F8DC30444633400D
:1044800019431143C8F8DC10802170472268636823
:10449000A568A468C4F30264C5F3C265C2F30B2225
:1044A00023F07F43CDE90054FFF7F8BE03EB02424F
:1044B000D6F8CC300B4043EA040134461143C6F829
:1044C000CC1008217047D0F8F810D0F8F80001227D
:1044D000C0F3017052FAA1F470470122C0F30170D9
:1044E00052FAA1F470470B4043EA040134461143E9
:1044F0007047C0F3C11021FA00F0D0BDC0F30170C5
:1045000001EB80017047D4F8D800012151FAA0F5E1
:10451000D4F8D8007047D4F8DC00012151FAA0F596
:10452000D4F8DC0070470068400701EAE070D0BDB5
:104530004FF40041006801EA8030D0BD0A6A096A80
:10454000C2F3025201F00701704703EB0242D4F8B4
:10455000D8304446334019431143C8F8D81040219D
:10456000704720F00040FFF72BBF012151FAA0F562
:104570007047B0FBF4F0D0BD4DF808ED206800F0B6
:10458000E040FFF755FE00285DF808EB7047216A10
:10459000C1F30251C840216A7047C90F61F3861008
:1045A000206570472168C1F3055100297047D0404C
:1045B000C840D0BD0A6A096AC2F30252C1F30211AF
:1045C00070470968C1F30251C840D0BDD0F83C1211
:1045D000490470472646DAE9084270471A43C4F88E
:1045E00044217047F0B503AF2DE9FC0F6A4A102350
:1045F0004FF0000E4FF000094FF0000B4FF0000C91
:104600009042664A08BF0B2303934EF2FF03024415
:104610004FEAB222029292B223FA02F2019200F120
:10462000200200920A6832FA0CF400F0B0800123F4
:1046300003FA0CF412EA040800F0A080CDE9049E0D
:10464000D1F8049009F0030EAEF10102012A4FF0F7
:10465000030202FA0BF512D8826822EA0506D1E9B4
:10466000022303FA0BF333438360C9F30013466854
:1046700003FA0CF326EA04042343436005E08A6846
:10468000BEF1030F08BF012A24D0C36802FA0BF25F
:104690004FEA4C0AAB43ED431A43BEF1020FC2602E
:1046A0001ED1059A0F2302F01C0203FA02FE6FF0DE
:1046B000030303EA5C04009B1E5926EA0E0E0E69F2
:1046C00006FA02F242EA0E021A51D1F8049009F0F9
:1046D000030E05E04FF0030EDA460EFA0BF2D54357
:1046E00003680EFA0AF22B401A43026019F4403FA5
:1046F000DDE9049E42D02A4A2CF003036032D458EC
:10470000029B039D0F2B07D8019B039DDB0703D062
:10471000029B244D55F8235009F018030F269E40A4
:1047200005FA03F3B4434FEA9C06234342F82630CC
:104730001B4ED6F880204C6842EA0803E50358BFB8
:1047400022EA0803C6F88030A503D6F8842042EA9E
:10475000080358BF22EA0803C6F88430E50232682D
:1047600042EA080358BF22EA08033360A4027268D1
:1047700042EA080358BF22EA080373600EF1040EF0
:1047800009F108090BF1020B0CF1010C4AE706B024
:10479000BDE8000FF0BD00BF004002560000FEA9BA
:1047A00000500256806210701823002A08BF282388
:1047B000C1507047B0B502AF40F20114036B02EA7A
:1047C0000405A54201D10B4302E0D40548BF8B4349
:1047D000036340F2022402EA0405436BA54201D1BF
:1047E0000B4302E0920548BF8B434363B0BDD4D472
:1047F0008A060D4A0BD4136801F01101834313603C
:10480000112953681ABFC043184018430AE01368BF
:1048100001F02201034313602229516814BF21EAE9
:10482000000008435060704770480256042823D89F
:10483000F0B503AF4DF804BD104D18236FF0807430
:1048400005F10802DFE800F00E03090D0700192347
:104850006FF0007406E02A1D04E01A236FF08064F4
:1048600000E02A4601FA03F0116821400843106075
:104870005DF804BBBDE8F040704700BF3448025605
:10488000014800F003B800BF3C480256016841F4FB
:1048900080710160704780B56F460320FCF75AF8BD
:1048A000FBF79EFF0E2000F007F808B1012080BD45
:1048B00001F0D6F9002080BDF0B503AF4DF804BD7E
:1048C0000F4E04463078B0B14FF47A71B1FBF0F07E
:1048D0000C490968B1FBF0F0FCF78AF801250F2CB0
:1048E0000AD848B94FF0FF30214600220025FCF7D6
:1048F00041F8746000E0012528465DF804BBF0BD76
:1049000004000034000000340348044900780A68B9
:1049100010440860704700BF0400003424000034D5
:1049200001480068704700BF24000034B0B502AFF2
:104930000446FFF7F5FF05460548611C007818BFDF
:104940000444FFF7EDFF401BA042FAD3B0BD00BF07
:1049500004000034D0B502AF60B100F060FE08B9C9
:1049600000F011FE00F0E6FD01D000F07CFE00F04A
:104970007DFE08B10120D0BD00F067FE21F02A01C4
:10498000816000F010FEBDE8D04000F047B9D0B51E
:1049900002AF816A0A0706D50268836B546824F463
:1049A000004423435360CA0706D00268C36A5468B0
:1049B00024F40034234353608A0706D50268036B4E
:1049C000546824F48034234353604A0706D50268B0
:1049D000436B546824F4802423435360CA0606D5ED
:1049E0000268C36B946824F48054234393608A065E
:1049F00006D50268036C946824F400542343936042
:104A00004A060FD50268436C546824F480141C4392
:104A1000B3F5801F546005D1836C546824F4C0043E
:104A200023435360090606D50168C06C4A6822F426
:104A3000002210434860D0BDF0B503AF4DF804BD6F
:104A400004460068664E04F108030ECB0568354045
:104A50006669194340F080533143634E2943E56949
:104A600029430160416821F44051114341605D498F
:104A7000A2698B421CBF236A1A43836833401A43DE
:104A80008260626AC36A23F00F031A43C262574A04
:104A9000904236D00022884227D0554988425ED0C5
:104AA0005449884255D0B0F1502F18D0524988420D
:104AB00052D0524988421BD05149884246D0514970
:104AC00088420FD05049884215D05049884215D0AD
:104AD0004F49884214BF00214FF4007141E04FF468
:104AE00080513EE04FF400513BE04FF400000AE0FB
:104AF0004FF4004135E04FF4803132E04FF40031A3
:104B00002FE0002000221146FDF78EFE00285CD029
:104B1000616A404B626833F81110B0FBF1F002EBB0
:104B20004201884253D3B0EB023F50D8002150EAF3
:104B30000F2110EB520041F100010023FBF708FEAA
:104B4000354AA0F5407191423DD340E04FF4807169
:104B500007E04FF4006104E04FF4804101E04FF4BE
:104B600080611046FDF760FEB5F5004F19D160B3C6
:104B7000626A284B616833F81220B0FBF2F04A08F1
:104B800002EB40004FF6EF72B0FBF1F0A0F1100124
:104B900091421CD84FF6F0710140C0F34200084426
:104BA00011E090B1626A1B4B616833F81220B0FBD0
:104BB000F2F04FF6EF7200EB5100B0FBF1F0A0F114
:104BC0001001914203D82168C860002000E0012054
:104BD0000021C4E91D114FF00111A16600F023BDB1
:104BE000F369FFCF000C0056FFF4FF11000C0046E4
:104BF00000480050004C005000780050007C0050ED
:104C0000001000520014005200180052001C005204
:104C100000440050C062107000FD0F00BCB504AF2E
:104C200004460020C4F89000FFF77AFE054620688D
:104C30000168090712D56FF07E404FF4001100F0B3
:104C4000E0FC50B100F08BFC20F0800000F0B1FCE3
:104C5000F8D103202021882225E020680068400741
:104C600018D56FF07E404FF4800100F0CAFC88B187
:104C700000F075FC20F4907000F09BFCF8D100F07F
:104C800073FC20F0010000F098FCF8D103202021F3
:104C90008C2208E0202000217022C4F88800C4F88B
:104CA0008C00E1660020A150002184F88410BCBD76
:104CB000F0B503AF2DE9800FD7F808A08146006852
:104CC000984616460D464FF0030B0AF10104C169E0
:104CD0002940A9425FEA1F91B1421FD1002CF6D0B2
:104CE000FFF71EFEA0EB0800504519D8BAF1000FDF
:104CF00016D0D9F8000001684907E8D5402D18BF43
:104D0000802DE4D0C16909070ED4C1690905DED53B
:104D10004FF0030B20244FF4006109E04FF0000B2B
:104D20005846BDE8080FF0BD4FF0010B08210824DC
:104D30000162484600F0EAF9002089F88400C9F8C9
:104D40009040EDE7D0F88830202B1CBF0220704740
:104D500011B30AB30023A0F85620C0F890300165C3
:104D60002121A0F85420C0F88810426E8168B2F169
:104D7000005F13D1B1F5805F01D1016909B3164914
:104D80008167016851E8021F026841F4000142E8AE
:104D90000213002BF5D112E001207047B1F5805FBE
:104DA00001D1016979B10A498167734600F03EFC7F
:104DB0009E4641F0800142E80013002BF5D100200F
:104DC00070470449DCE70149EEE700BF654E10700B
:104DD000A74E1070DD4D1070234E1070D0F8881063
:104DE00021291DD1D0B502AFB0F86A100A0415D040
:104DF000B0F8562062B10268D3691B0606D5036D70
:104E000033F8024B6FF35F2400F001FC0139EDE74A
:104E100000F0BFFBFCD100F0ACFBFCD1BDE8D04002
:104E20007047D0F8881021291BD1D0B502AFB0F857
:104E30006A100A0413D0B0F8562052B10268D36940
:104E40001B0604D5036D13F8014B00F0E0FB01399C
:104E5000EFE700F09EFBFCD100F08BFBFCD1BDE83E
:104E6000D0407047D0F8881021291BD1B0F85610D7
:104E700039B1026D016832F8023B6FF35F2300F035
:104E8000B4BB734600F0D2FB9E4621F0800142E89D
:104E90000013002BF5D14DF808ED00F06AFB5DF82A
:104EA00008EBF8D17047D0F88810212919D1B0F853
:104EB000561029B1026D016812F8013B00F095BB54
:104EC000734600F0B3FB9E4621F0800142E80013D8
:104ED000002BF5D14DF808ED00F04BFB5DF808EB29
:104EE000F8D17047F0B503AF4DF804BD00F097FB63
:104EF00020282CD100293ED0EAB300232120A4F899
:104F00005620C4F89030A4F854202165C4F88800D5
:104F1000E06F90B3C366A368204D00F1600EDFF828
:104F200074C01D4EB3F5805F8EE8601004D1236914
:104F3000002B5FEA1F939A4090F850301B0608D46C
:104F4000256893B205F12802FCF724F90DE0022050
:104F50001EE0436F53B11B6843B1D96091B29960B1
:104F6000216828311961FCF7B9FA30B11020C4F872
:104F7000900000F07EFB01200AE0206840210162E1
:104F800000F0F2FA40F0800000F017FBF8D10020AA
:104F900000F049BBD74F1070D14F1070A14F107067
:104FA000016DC06D812908BF00F0C6BF016851E8DE
:104FB000021F026821F0800142E80213002BF5D1A4
:104FC0004DF808ED00F0D5FA5DF808EBF8D1704720
:104FD000C06D00F033BAB0B502AFC46D206800F008
:104FE0003BFB05D5212903D1204600F079F8206844
:104FF0008068400604D5222D02D1204600F086F8B4
:10500000D4F8900040F01000C4F890002046BDE8AD
:10501000B04000F012BAD4D4F0B503AF4DF804BDDF
:105020000D4600210446C0F89010A0F85C2085656C
:105030002220C4F88C0000F0E0FA31D0C166A168EB
:10504000264B00F1600EDFF88CC0234EB1F5805F77
:105050008EE8481004D1216900295FEA1F918A4037
:1050600090F85010090606D4216893B22A462431DC
:10507000FCF790F80BE0416F51B1096841B192B271
:105080000D618A6022682432CA60FCF727FA38B1C1
:105090001020C4F890002020C4F88C00012017E0F4
:1050A000206930B100F05BFA40F4807000F081FAC2
:1050B000F8D100F059FA40F0010000F07EFAF8D182
:1050C00000F052FA40F0400000F077FAF8D10020EA
:1050D00000F0A9BAD74F1070D75410704154107017
:1050E000734600F0A3FA9E4621F0C00142E8001387
:1050F000002BF5D14DF808ED00F04BFA5DF808EB08
:10510000F8D12021C0F888107047D4D4D0B502AFB0
:1051100000F061FAFCD10A4900F092FA0A4043E833
:105120000224002CF8D1C16E012902D100F049FA05
:10513000FCD12021C0F88C1000214167C166D0BD90
:10514000FEFFFFEFF0B503AF4DF804BD0168044664
:1051500040F60F05CA6908688B682A424FEA826CDC
:1051600068D0B04E00EA0605AF4E1E40AD196AD0B9
:10517000D50709D0C50507D501250D62D4F8905093
:1051800045F00105C4F89050950709D5DD0707D013
:1051900002250D62D4F8905045F00405C4F89050F3
:1051A000550709D5DD0707D004250D62D4F89050C6
:1051B00045F00205C4F8905015070BD500F0200506
:1051C000354307D008250D62D4F8905045F0080506
:1051D000C4F8905012050AD5420108D54FF4006278
:1051E0000A62D4F8902042F02002C4F89020D4F84B
:1051F0009020002A00F01281BCF1000F0AD503F0C4
:10520000805200F02000801804D0626F12B1204656
:1052100090472168D4F89000896800F0280001F0D8
:105220004001401855D1204600F007F90020C4F88D
:105230009000F3E0BCF1000F05D503F0805500F0BD
:105240002006AD195FD1E56E012D03D1D50601D53C
:10525000C50662D4D50201D55D0230D4110605D54C
:1052600003F4000100F08003C9184AD1510601D5AA
:10527000410612D4110202D5410000F18B80D10108
:1052800040F1CC80B0F1FF3F00F3C88020465DF8CC
:1052900004BBBDE8F04000F0F1B900F060F920F087
:1052A000400000F086F9F8D10020A06700F0E1F995
:1052B00020465DF804BBBDE8F04000F03DBE4FF471
:1052C0008010086220465DF804BBBDE8F04000F0A5
:1052D000D4B92046FFF71AFF20688068400652D5EF
:1052E00000F01EF9FCD100F088F94CD04F49C1669E
:1052F000FBF7DEFF002800F09180D4F88000C16E3B
:1053000006E0A16F00E0616F002900F08780204671
:105310005DF804BBBDE8F0400847102008628868CB
:1053200040063ED4B4F85E00B4F85C10B4F85E20D9
:10533000002A73D0081A71D0216851E8001F226832
:1053400021F4907142E80013002BF5D1384922680E
:1053500052E8022F23680A4043E80225002DF6D1C7
:105360002021C4F88C1000216167E166216851E8B2
:10537000001F226821F0100142E80013002BF5D134
:10538000022121673AE020465DF804BBBDE8F04009
:1053900000F053B820465DF804BBBDE8F04000F0D3
:1053A0006EB9D4F88000B4F85C2001688B6C99B2B7
:1053B00061B391422AD2A4F85E30006D812816D0E4
:1053C00000F0C3F8FCD100F0CFF820F0010000F0AD
:1053D000F4F8F8D100F0A4F8FCD100F02CF9E06664
:1053E00000F094F8FCD1D4F88000FBF715FF022000
:1053F0002067B4F85C00B4F85E10401A81B2204611
:105400005DF804BBBDE8F04000F006BD8A4205D15E
:10541000006D812802D102202067F0E75DF804BB0F
:10542000F0BD00BF200100040100001035541070D1
:10543000FEFFFFEFC06D00F000B870477047704787
:10544000D0B502AF026D0146C06D812A29D0026835
:1054500052E8002F036822F4807243E80024002CF5
:10546000F5D100F0EDF822F0010243E80224002C0F
:10547000F7D100F0E5F822F0400243E80224002CC6
:10548000F7D12022C0F88C20C26E012A09D102680F
:1054900052E8002F036822F0100243E80024002C99
:1054A000F5D100220267C26E012A10D10968B0F856
:1054B0005C20896C8BB2934238BFA0F85E10B0F8C4
:1054C0005E10511A89B2BDE8D04000F0A5BCBDE81D
:1054D000D04000F07CBC0146C06D01220267C26E64
:1054E000012A18BFFFF7ABBFB0F85C205308A0F843
:1054F0005E300968896C8BB2934298BFA0F85E1049
:10550000B0F85E10511A89B200F086BC206850E8ED
:10551000000F216820F0100041E80002002A7047C7
:10552000206850E8020F216820F0400041E80202A4
:10553000002A70472420C4F888002068A16A026805
:10554000002922F0010202607047206850E8000F35
:10555000216820F4807041E80002002A704720682A
:1055600050E8000F21687047206850E8020F21685A
:105570007047016851E8001F026841F0400142E8AD
:105580000013002B7047002084F88400204600F0B0
:1055900093BA016851E8021F026821F4000142E851
:1055A0000213002B7047016841F0010101602046A1
:1055B000704741E80002002A704741E80202002AD1
:1055C0007047016851E8001F026821F0100142E8AD
:1055D0000013002B7047016851E8001F026821F496
:1055E000907142E80013002B70478B620265B0F89F
:1055F00056100139A0F856107047D4F880000028E2
:10560000704700222B4600902046FFF751BB946262
:105610000365B0F85620013AA0F8562070470446BA
:10562000D0F8880070475DF804BBF0BD016851E810
:10563000001F026870472020C4F88C0000207047CB
:10564000026852E8022F036870472068416821F41D
:105650009041416081687047D4F88810D4F88C502C
:105660008268120670472046FFF791B92046FFF77F
:10567000E3B92020C4F8880070477047704770472E
:10568000416EB1B1B0B502AF02680D4B0D4D9168DE
:10569000C1F342615C5C695C9268520F09019B5CDA
:1056A000AA5CB1FBF4F11201B2FBF3F2BDE8B04029
:1056B00001E001220121A0F86810A0F86A207047DB
:1056C000E8621070D862107090F88410012901D13E
:1056D000022112E02421C0F8881001680A680B68D2
:1056E00023F0010322F000520B600A600021202207
:1056F000416680F88410C0F8882008467047B0B52D
:1057000002AF00F059F804BF0220B0BD00F03DF830
:1057100022F0604200F055F800F045B8B0B502AF95
:1057200000F04AF804BF0220B0BD00F02EF822F0CD
:10573000606200F046F800F036B8D0B502AF04461B
:10574000D0F88C0020281CBF0220D0BDD9B1012088
:1057500032B1E066002020672046FFF75DFC00B113
:10576000D0BDE06E01280ED12068102101622068B2
:1057700050E8000F216840F0100041E80002002AC4
:10578000F5D10020D0BD0120D0BD2420C4F8880070
:1057900020680568026822F001020260012284F894
:1057A000842082687047206820210560002084F8EA
:1057B0008400C4F88810B0BD044690F88400012825
:1057C0007047114381602046FFF75ABFE0B502AF32
:1057D0003E48016889030ED4BFF34F8F0021BFF309
:1057E0006F8FC0F83C1200F0BEF8016841F4003140
:1057F000016000F0B8F80168C90326D400210167F0
:10580000BFF34F8FC46EE308C4F34E32C4F3C90430
:105810009B07661C510143F6E07446F001E001EA83
:1058200004051D44C0F84C5205F140450FF007C077
:105830002039551E002A2A46EFD1BFF34F8F016849
:1058400041F48031016000F08EF8FFF724F800F099
:105850008FF800F0D5F800F0F3F81D484FF4007110
:10586000C0F8001820210068019001980120FEF77F
:10587000BFFF1848FF21FBF7F0FD08B172B6FEE745
:105880001548FF21FBF7E9FD08B172B6FEE7134C9E
:10589000134D202140F201322046A84720464021E6
:1058A00040F20132A847204600F058F804F50060A5
:1058B00000F054F8002000F00FFA012000F00CFA7C
:1058C00008480949802200F067FAFEE714ED00E07D
:1058D00058820256CC0100345401003400100256A4
:1058E000B5471070C000003440000034F0B503AF7D
:1058F0002DE9000B144689468046062A05D3154932
:105900004846052200F054FB40B140464946224635
:10591000BDE8000BBDE8F04000F0C6BA601F09F119
:1059200006064508002DF0D0317816F8010C312913
:105930005FEA1F91522803D0472804D1012000E0DC
:10594000002000F005FAC820FEF7F0FF0236013D06
:10595000E8E700BFF062107072B6FEE74FF48061B6
:1059600040F201322847BFF34F8FBFF36F8F70476C
:10597000F0B503AF4DF804BD2DED0A5B6C46142164
:10598000204600F0E6FA1C4810211C4D0122C0F808
:1059900000180168059105994021C0F800184FF4DE
:1059A00080610068059005982846FEF7FDFE05F524
:1059B00000664FF4806101223046FEF7F5FE0AA032
:1059C000214690ED009F284684ED009FFEF70AFED9
:1059D0003046214684ED009FFEF704FEBDEC0A5BD5
:1059E0005DF804BBF0BD00BF000400000100000032
:1059F00002000000000000005C8202560010025607
:105A0000E0B502AF0C4810210022C0F800180F21A9
:105A10000068019001985420FAF7ACFF5420FAF77F
:105A2000D7FF552000210022FAF7A4FF5520BDE83A
:105A30008C40FAF7CDBF00BF50820256D4D4D4D4E4
:105A4000D0B502AF1A4C0C201421606119482060B7
:105A500013A090ED001F04F1180084ED011F00F069
:105A600078FA2046FEF776FF08B1FFF775FF104879
:105A70000021FFF744FE08B1FFF76EFF0C4800213C
:105A8000FFF74CFE08B1FFF767FF0948FFF71CFE60
:105A900018B1BDE8D040FFF75FBFD0BD00BF00BF69
:105AA00000C2010000000000000000000000000033
:105AB000C000003400100052F0B503AF4DF8048D63
:105AC0002DED048BEAB064AD04461421284600F0A5
:105AD00040FA68464FF4C471083000F03AFA206882
:105AE0004949884261D14FF48070002601904748AF
:105AF000009654906846FBF7A1FD08B1FFF72CFF14
:105B000043481021C0F8101802696992699AC0F8D8
:105B1000001829A1006891ED001F294685ED001F9E
:105B200069900720689069983A48FEF75BFD26A0C7
:105B3000394D90ED001F394885ED011FC5E9056617
:105B4000C5E907666E6380468030286022A090ED2C
:105B5000009F284685ED099FFAF75EFF08B1FFF721
:105B6000FBFEEC65E5672E4D002068631EA0C5F8BE
:105B7000008085ED099F90ED001F1FA085ED051F9A
:105B800090ED001F284685ED011FFAF745FF08B18B
:105B9000FFF7E2FE9F200F210022EC65C4F8805041
:105BA000FAF7E8FE9F20FAF713FF6AB0BDEC048B0A
:105BB0005DF8048BF0BD00BF600000000200000033
:105BC00000000000000000006C0000000000000069
:105BD00000040000080000000100000001000000B7
:105BE00000000000000000000000080000000000AD
:105BF00000000000000000006B000000000000003A
:105C000000000000000000000010005230000107FA
:105C10005C820256001002565401003450100250AB
:105C2000CC010034FEE7FEE7FEE7FEE7FEE7FEE715
:105C3000704770477047FEF767BED4D40148FBF742
:105C40004BBB00BFCC0100340148FBF745BB00BF94
:105C5000540100340148FFF775BA00BFC00000349A
:105C600080B56F46FEF70CFE01200121BDE88040A3
:105C7000FEF7DCBD0F4880F30A880F488546FAF727
:105C800071FD0E480E490F4A002302E0D458C4505B
:105C90001B1DC4188C42F9D30B4A0C4C002301E0A5
:105CA0001360121DA242FBD300F05EF9FFF78EFDD8
:105CB000FEE7000000F81F3400002034000000342C
:105CC0000C000034206310701000003460020034B7
:105CD000FEE7D4D4D4D4D4D4D0B502AF86B0044631
:105CE000012805D0CCB9FEF7CBFD1148402101E0D9
:105CF0000F481021C0F8001800680190019801A910
:105D000007A090ED001F0B4881ED001F50F8240004
:105D1000FEF768FC204600F00FF806B0D0BD00BFCB
:105D2000000400000100000000000000000000006E
:105D30005C820256E06210700149012200F00EB848
:105D4000E06210700149002200F008B8E0621070B3
:105D5000012918BFFFF7F0BFFFF7F4BF51F820008B
:105D60004FF48061FEF720BDF0B503AF4DF804BDE0
:105D7000084C2578012D09D86E1C05EB45052670C9
:105D800004EB8504A373A281C4E901015DF804BB9F
:105D9000F0BD00BF44020034F0B503AF4DF804BDC0
:105DA000022315460E460446FFF7DEFF2046314625
:105DB0002A46FFF7C2FC38B9D4F8801021B109682F
:105DC0004A6922F400724A615DF804BBF0BDD0B5A7
:105DD00002AF044600F00CF848B1817A012906D1DF
:105DE000028941682046BDE8D040FFF77FBDD0BDA5
:105DF000084911F8042B0132013A04BF0020704712
:105E000001F10C0309688142194604BFA3F10C009B
:105E10007047F1E744020034F0B503AF4DF804BD1C
:105E20000D460446FFF7E4FFC0B30646807A022819
:105E300034D171680DB301B368181F3020F01F0C06
:105E400021F01F00ACEB0003202B1A4628BF2022B4
:105E5000012B12DBACEB02010122BFF34F8F1F318C
:105E6000091A02EB511E0F49086020300FF005C0DF
:105E7000BFF34F8FBFF36F8F716820462A46FFF73D
:105E800035FD328971682046FFF757FCD4F8800051
:105E900020B10068416921F4007141615DF804BBE3
:105EA000F0BD00BF5CEF00E0F0B503AF4DF804BDFE
:105EB00014460D460646FFF79BFF68B3807A01281B
:105EC0002ED0022828D1F5B1ECB128191F3020F0CE
